{
  "_format": "hh-sol-artifact-1",
  "contractName": "PaymentScheduler",
  "sourceName": "contracts/PaymentScheduler.sol",
  "abi": [
    {
      "anonymous": false,
      "inputs": [
        {
          "indexed": false,
          "internalType": "address",
          "name": "previousAdmin",
          "type": "address"
        },
        {
          "indexed": false,
          "internalType": "address",
          "name": "newAdmin",
          "type": "address"
        }
      ],
      "name": "AdminChanged",
      "type": "event"
    },
    {
      "anonymous": false,
      "inputs": [
        {
          "indexed": true,
          "internalType": "address",
          "name": "beacon",
          "type": "address"
        }
      ],
      "name": "BeaconUpgraded",
      "type": "event"
    },
    {
      "anonymous": false,
      "inputs": [
        {
          "indexed": false,
          "internalType": "address",
          "name": "user",
          "type": "address"
        },
        {
          "indexed": false,
          "internalType": "bool",
          "name": "status",
          "type": "bool"
        }
      ],
      "name": "BlacklistUpdated",
      "type": "event"
    },
    {
      "anonymous": false,
      "inputs": [
        {
          "indexed": false,
          "internalType": "bool",
          "name": "status",
          "type": "bool"
        }
      ],
      "name": "ContractEnabled",
      "type": "event"
    },
    {
      "anonymous": false,
      "inputs": [
        {
          "indexed": false,
          "internalType": "address",
          "name": "newFeeToken",
          "type": "address"
        }
      ],
      "name": "FeeTokenUpdated",
      "type": "event"
    },
    {
      "anonymous": false,
      "inputs": [
        {
          "indexed": false,
          "internalType": "uint256",
          "name": "newFee",
          "type": "uint256"
        }
      ],
      "name": "FeeUpdated",
      "type": "event"
    },
    {
      "anonymous": false,
      "inputs": [
        {
          "indexed": false,
          "internalType": "address",
          "name": "sender",
          "type": "address"
        },
        {
          "indexed": false,
          "internalType": "address",
          "name": "recipient",
          "type": "address"
        },
        {
          "indexed": false,
          "internalType": "uint256",
          "name": "amount",
          "type": "uint256"
        }
      ],
      "name": "InstantTransactionExecuted",
      "type": "event"
    },
    {
      "anonymous": false,
      "inputs": [
        {
          "indexed": true,
          "internalType": "address",
          "name": "previousOwner",
          "type": "address"
        },
        {
          "indexed": true,
          "internalType": "address",
          "name": "newOwner",
          "type": "address"
        }
      ],
      "name": "OwnershipTransferred",
      "type": "event"
    },
    {
      "anonymous": false,
      "inputs": [
        {
          "indexed": false,
          "internalType": "address",
          "name": "account",
          "type": "address"
        }
      ],
      "name": "Paused",
      "type": "event"
    },
    {
      "anonymous": false,
      "inputs": [
        {
          "indexed": true,
          "internalType": "uint256",
          "name": "id",
          "type": "uint256"
        }
      ],
      "name": "TransactionCancelled",
      "type": "event"
    },
    {
      "anonymous": false,
      "inputs": [
        {
          "indexed": true,
          "internalType": "uint256",
          "name": "id",
          "type": "uint256"
        },
        {
          "indexed": false,
          "internalType": "address",
          "name": "sender",
          "type": "address"
        },
        {
          "indexed": false,
          "internalType": "address",
          "name": "recipient",
          "type": "address"
        },
        {
          "indexed": false,
          "internalType": "uint256",
          "name": "amount",
          "type": "uint256"
        }
      ],
      "name": "TransactionExecuted",
      "type": "event"
    },
    {
      "anonymous": false,
      "inputs": [
        {
          "indexed": true,
          "internalType": "uint256",
          "name": "id",
          "type": "uint256"
        },
        {
          "indexed": false,
          "internalType": "address",
          "name": "sender",
          "type": "address"
        },
        {
          "indexed": false,
          "internalType": "address",
          "name": "recipient",
          "type": "address"
        },
        {
          "indexed": false,
          "internalType": "uint256",
          "name": "amount",
          "type": "uint256"
        },
        {
          "indexed": false,
          "internalType": "uint256",
          "name": "executionTime",
          "type": "uint256"
        }
      ],
      "name": "TransactionExecutionDetails",
      "type": "event"
    },
    {
      "anonymous": false,
      "inputs": [
        {
          "indexed": true,
          "internalType": "uint256",
          "name": "id",
          "type": "uint256"
        },
        {
          "indexed": false,
          "internalType": "address",
          "name": "sender",
          "type": "address"
        },
        {
          "indexed": false,
          "internalType": "address",
          "name": "recipient",
          "type": "address"
        },
        {
          "indexed": false,
          "internalType": "uint256",
          "name": "amount",
          "type": "uint256"
        },
        {
          "indexed": false,
          "internalType": "uint256",
          "name": "scheduledTime",
          "type": "uint256"
        }
      ],
      "name": "TransactionScheduled",
      "type": "event"
    },
    {
      "anonymous": false,
      "inputs": [
        {
          "indexed": false,
          "internalType": "address",
          "name": "account",
          "type": "address"
        }
      ],
      "name": "Unpaused",
      "type": "event"
    },
    {
      "anonymous": false,
      "inputs": [
        {
          "indexed": true,
          "internalType": "address",
          "name": "implementation",
          "type": "address"
        }
      ],
      "name": "Upgraded",
      "type": "event"
    },
    {
      "inputs": [],
      "name": "baseFee",
      "outputs": [
        {
          "internalType": "uint256",
          "name": "",
          "type": "uint256"
        }
      ],
      "stateMutability": "view",
      "type": "function"
    },
    {
      "inputs": [
        {
          "internalType": "address",
          "name": "",
          "type": "address"
        }
      ],
      "name": "blacklist",
      "outputs": [
        {
          "internalType": "bool",
          "name": "",
          "type": "bool"
        }
      ],
      "stateMutability": "view",
      "type": "function"
    },
    {
      "inputs": [
        {
          "internalType": "uint256",
          "name": "amount",
          "type": "uint256"
        }
      ],
      "name": "calculateDynamicFee",
      "outputs": [
        {
          "internalType": "uint256",
          "name": "",
          "type": "uint256"
        }
      ],
      "stateMutability": "view",
      "type": "function"
    },
    {
      "inputs": [
        {
          "internalType": "uint256",
          "name": "id",
          "type": "uint256"
        }
      ],
      "name": "cancelTransaction",
      "outputs": [],
      "stateMutability": "nonpayable",
      "type": "function"
    },
    {
      "inputs": [
        {
          "internalType": "uint256",
          "name": "id",
          "type": "uint256"
        }
      ],
      "name": "executeTransaction",
      "outputs": [],
      "stateMutability": "nonpayable",
      "type": "function"
    },
    {
      "inputs": [],
      "name": "feeToken",
      "outputs": [
        {
          "internalType": "contract IERC20Upgradeable",
          "name": "",
          "type": "address"
        }
      ],
      "stateMutability": "view",
      "type": "function"
    },
    {
      "inputs": [],
      "name": "getAllScheduledTransactions",
      "outputs": [
        {
          "components": [
            {
              "internalType": "address payable",
              "name": "sender",
              "type": "address"
            },
            {
              "internalType": "address payable",
              "name": "recipient",
              "type": "address"
            },
            {
              "internalType": "uint256",
              "name": "amount",
              "type": "uint256"
            },
            {
              "internalType": "uint256",
              "name": "scheduledTime",
              "type": "uint256"
            },
            {
              "internalType": "bool",
              "name": "executed",
              "type": "bool"
            },
            {
              "internalType": "bool",
              "name": "cancelled",
              "type": "bool"
            }
          ],
          "internalType": "struct PaymentScheduler.Transaction[]",
          "name": "",
          "type": "tuple[]"
        }
      ],
      "stateMutability": "view",
      "type": "function"
    },
    {
      "inputs": [
        {
          "internalType": "uint256",
          "name": "_baseFee",
          "type": "uint256"
        },
        {
          "internalType": "address",
          "name": "_feeToken",
          "type": "address"
        }
      ],
      "name": "initialize",
      "outputs": [],
      "stateMutability": "nonpayable",
      "type": "function"
    },
    {
      "inputs": [
        {
          "internalType": "address payable",
          "name": "recipient",
          "type": "address"
        },
        {
          "internalType": "uint256",
          "name": "amount",
          "type": "uint256"
        }
      ],
      "name": "instantTransaction",
      "outputs": [],
      "stateMutability": "payable",
      "type": "function"
    },
    {
      "inputs": [],
      "name": "isContractEnabled",
      "outputs": [
        {
          "internalType": "bool",
          "name": "",
          "type": "bool"
        }
      ],
      "stateMutability": "view",
      "type": "function"
    },
    {
      "inputs": [],
      "name": "isEnabled",
      "outputs": [
        {
          "internalType": "bool",
          "name": "",
          "type": "bool"
        }
      ],
      "stateMutability": "view",
      "type": "function"
    },
    {
      "inputs": [],
      "name": "owner",
      "outputs": [
        {
          "internalType": "address",
          "name": "",
          "type": "address"
        }
      ],
      "stateMutability": "view",
      "type": "function"
    },
    {
      "inputs": [],
      "name": "pause",
      "outputs": [],
      "stateMutability": "nonpayable",
      "type": "function"
    },
    {
      "inputs": [],
      "name": "paused",
      "outputs": [
        {
          "internalType": "bool",
          "name": "",
          "type": "bool"
        }
      ],
      "stateMutability": "view",
      "type": "function"
    },
    {
      "inputs": [],
      "name": "renounceOwnership",
      "outputs": [],
      "stateMutability": "nonpayable",
      "type": "function"
    },
    {
      "inputs": [
        {
          "internalType": "address payable",
          "name": "recipient",
          "type": "address"
        },
        {
          "internalType": "uint256",
          "name": "amount",
          "type": "uint256"
        },
        {
          "internalType": "uint256",
          "name": "scheduledTime",
          "type": "uint256"
        }
      ],
      "name": "scheduleTransaction",
      "outputs": [
        {
          "internalType": "uint256",
          "name": "",
          "type": "uint256"
        }
      ],
      "stateMutability": "payable",
      "type": "function"
    },
    {
      "inputs": [
        {
          "internalType": "uint256",
          "name": "newBaseFee",
          "type": "uint256"
        }
      ],
      "name": "setBaseFee",
      "outputs": [],
      "stateMutability": "nonpayable",
      "type": "function"
    },
    {
      "inputs": [
        {
          "internalType": "bool",
          "name": "_isEnabled",
          "type": "bool"
        }
      ],
      "name": "setEnabled",
      "outputs": [],
      "stateMutability": "nonpayable",
      "type": "function"
    },
    {
      "inputs": [
        {
          "internalType": "address",
          "name": "newFeeToken",
          "type": "address"
        }
      ],
      "name": "setFeeToken",
      "outputs": [],
      "stateMutability": "nonpayable",
      "type": "function"
    },
    {
      "inputs": [],
      "name": "transactionCount",
      "outputs": [
        {
          "internalType": "uint256",
          "name": "",
          "type": "uint256"
        }
      ],
      "stateMutability": "view",
      "type": "function"
    },
    {
      "inputs": [
        {
          "internalType": "uint256",
          "name": "",
          "type": "uint256"
        }
      ],
      "name": "transactions",
      "outputs": [
        {
          "internalType": "address payable",
          "name": "sender",
          "type": "address"
        },
        {
          "internalType": "address payable",
          "name": "recipient",
          "type": "address"
        },
        {
          "internalType": "uint256",
          "name": "amount",
          "type": "uint256"
        },
        {
          "internalType": "uint256",
          "name": "scheduledTime",
          "type": "uint256"
        },
        {
          "internalType": "bool",
          "name": "executed",
          "type": "bool"
        },
        {
          "internalType": "bool",
          "name": "cancelled",
          "type": "bool"
        }
      ],
      "stateMutability": "view",
      "type": "function"
    },
    {
      "inputs": [
        {
          "internalType": "address",
          "name": "newOwner",
          "type": "address"
        }
      ],
      "name": "transferOwnership",
      "outputs": [],
      "stateMutability": "nonpayable",
      "type": "function"
    },
    {
      "inputs": [],
      "name": "unpause",
      "outputs": [],
      "stateMutability": "nonpayable",
      "type": "function"
    },
    {
      "inputs": [
        {
          "internalType": "address",
          "name": "user",
          "type": "address"
        },
        {
          "internalType": "bool",
          "name": "status",
          "type": "bool"
        }
      ],
      "name": "updateBlacklist",
      "outputs": [],
      "stateMutability": "nonpayable",
      "type": "function"
    },
    {
      "inputs": [
        {
          "internalType": "address",
          "name": "newImplementation",
          "type": "address"
        }
      ],
      "name": "upgradeTo",
      "outputs": [],
      "stateMutability": "nonpayable",
      "type": "function"
    },
    {
      "inputs": [
        {
          "internalType": "address",
          "name": "newImplementation",
          "type": "address"
        },
        {
          "internalType": "bytes",
          "name": "data",
          "type": "bytes"
        }
      ],
      "name": "upgradeToAndCall",
      "outputs": [],
      "stateMutability": "payable",
      "type": "function"
    },
    {
      "stateMutability": "payable",
      "type": "receive"
    }
  ],
  "bytecode": "0x6080604052348015600e575f5ffd5b506147e98061001c5f395ff3fe608060405260043610610184575f3560e01c8063715018a6116100d0578063aac2ccad11610089578063da35a26f11610063578063da35a26f146104f6578063ee22610b1461051e578063f2fde38b14610546578063f9f92be41461056e5761018b565b8063aac2ccad14610466578063b77bf60014610490578063d62a0f81146104ba5761018b565b8063715018a61461037d5780638456cb59146103935780638da5cb5b146103a95780639155e083146103d35780639ace38c2146103fb5780639d602d2d1461043c5761018b565b80633f4ba83a1161013d5780635c975abb116101175780635c975abb146102d5578063647846a5146102ff5780636aa633b6146103295780636ef25c3a146103535761018b565b80633f4ba83a1461027b57806346860698146102915780634f1ef286146102b95761018b565b806302e8d8c01461018f57806303239d8e146101bf57806315cce224146101db578063328d8f72146102035780633380c0d81461022b5780633659cfe6146102535761018b565b3661018b57005b5f5ffd5b6101a960048036038101906101a49190613308565b6105aa565b6040516101b69190613367565b60405180910390f35b6101d960048036038101906101d49190613380565b610998565b005b3480156101e6575f5ffd5b5061020160048036038101906101fc91906133f9565b610c93565b005b34801561020e575f5ffd5b5061022960048036038101906102249190613459565b610d8a565b005b348015610236575f5ffd5b50610251600480360381019061024c9190613484565b610e5a565b005b34801561025e575f5ffd5b50610279600480360381019061027491906133f9565b611162565b005b348015610286575f5ffd5b5061028f611187565b005b34801561029c575f5ffd5b506102b760048036038101906102b29190613484565b61120d565b005b6102d360048036038101906102ce91906135eb565b6112cb565b005b3480156102e0575f5ffd5b506102e96112e4565b6040516102f69190613654565b60405180910390f35b34801561030a575f5ffd5b506103136112f9565b60405161032091906136c8565b60405180910390f35b348015610334575f5ffd5b5061033d61131f565b60405161034a9190613654565b60405180910390f35b34801561035e575f5ffd5b50610367611332565b6040516103749190613367565b60405180910390f35b348015610388575f5ffd5b50610391611339565b005b34801561039e575f5ffd5b506103a7611472565b005b3480156103b4575f5ffd5b506103bd6114f8565b6040516103ca91906136f0565b60405180910390f35b3480156103de575f5ffd5b506103f960048036038101906103f49190613709565b611520565b005b348015610406575f5ffd5b50610421600480360381019061041c9190613484565b61162e565b60405161043396959493929190613756565b60405180910390f35b348015610447575f5ffd5b506104506116be565b60405161045d9190613654565b60405180910390f35b348015610471575f5ffd5b5061047a6116d4565b6040516104879190613903565b60405180910390f35b34801561049b575f5ffd5b506104a46118fe565b6040516104b19190613367565b60405180910390f35b3480156104c5575f5ffd5b506104e060048036038101906104db9190613484565b611905565b6040516104ed9190613367565b60405180910390f35b348015610501575f5ffd5b5061051c60048036038101906105179190613923565b611940565b005b348015610529575f5ffd5b50610544600480360381019061053f9190613484565b611a9a565b005b348015610551575f5ffd5b5061056c600480360381019061056791906133f9565b611e97565b005b348015610579575f5ffd5b50610594600480360381019061058f91906133f9565b61203f565b6040516105a19190613654565b60405180910390f35b5f6105b36112e4565b156105f3576040517f08c379a00000000000000000000000000000000000000000000000000000000081526004016105ea906139bb565b60405180910390fd5b600260c95403610638576040517f08c379a000000000000000000000000000000000000000000000000000000000815260040161062f90613a23565b60405180910390fd5b600260c9819055506101315f3373ffffffffffffffffffffffffffffffffffffffff1673ffffffffffffffffffffffffffffffffffffffff1681526020019081526020015f205f9054906101000a900460ff16156106cb576040517f08c379a00000000000000000000000000000000000000000000000000000000081526004016106c290613a8b565b60405180910390fd5b5f831161070d576040517f08c379a000000000000000000000000000000000000000000000000000000000815260040161070490613af3565b60405180910390fd5b4282116107194261205d565b6107228461205d565b604051602001610733929190613c37565b60405160208183030381529060405290610783576040517f08c379a000000000000000000000000000000000000000000000000000000000815260040161077a9190613ca8565b60405180910390fd5b505f61078e84611905565b9050808461079c9190613cf5565b34146107dd576040517f08c379a00000000000000000000000000000000000000000000000000000000081526004016107d490613d98565b60405180910390fd5b5f61012e5f8154809291906107f190613db6565b9190505590506040518060c001604052803373ffffffffffffffffffffffffffffffffffffffff1681526020018773ffffffffffffffffffffffffffffffffffffffff1681526020018681526020018581526020015f151581526020015f151581525061012d5f8381526020019081526020015f205f820151815f015f6101000a81548173ffffffffffffffffffffffffffffffffffffffff021916908373ffffffffffffffffffffffffffffffffffffffff1602179055506020820151816001015f6101000a81548173ffffffffffffffffffffffffffffffffffffffff021916908373ffffffffffffffffffffffffffffffffffffffff16021790555060408201518160020155606082015181600301556080820151816004015f6101000a81548160ff02191690831515021790555060a08201518160040160016101000a81548160ff021916908315150217905550905050807f03007cea4db2c6c497b4dcc58da86df4157c12f03ab8286192b235041fdc5b523388888860405161097c9493929190613e1d565b60405180910390a28092505050600160c9819055509392505050565b6109a06112e4565b156109e0576040517f08c379a00000000000000000000000000000000000000000000000000000000081526004016109d7906139bb565b60405180910390fd5b6101325f9054906101000a900460ff16610a2f576040517f08c379a0000000000000000000000000000000000000000000000000000000008152600401610a2690613eaa565b60405180910390fd5b600260c95403610a74576040517f08c379a0000000000000000000000000000000000000000000000000000000008152600401610a6b90613a23565b60405180910390fd5b600260c9819055506101315f3373ffffffffffffffffffffffffffffffffffffffff1673ffffffffffffffffffffffffffffffffffffffff1681526020019081526020015f205f9054906101000a900460ff1615610b07576040517f08c379a0000000000000000000000000000000000000000000000000000000008152600401610afe90613a8b565b60405180910390fd5b5f8111610b49576040517f08c379a0000000000000000000000000000000000000000000000000000000008152600401610b4090613af3565b60405180910390fd5b5f610b5382611905565b90508082610b619190613cf5565b3414610ba2576040517f08c379a0000000000000000000000000000000000000000000000000000000008152600401610b9990613d98565b60405180910390fd5b5f8373ffffffffffffffffffffffffffffffffffffffff1683604051610bc790613ef5565b5f6040518083038185875af1925050503d805f8114610c01576040519150601f19603f3d011682016040523d82523d5f602084013e610c06565b606091505b5050905080610c4a576040517f08c379a0000000000000000000000000000000000000000000000000000000008152600401610c4190613f53565b60405180910390fd5b7f198539828ea1b1430042d87021d717b33000f4eeefcba705c4849838f0ec31cf338585604051610c7d93929190613f71565b60405180910390a15050600160c9819055505050565b610c9b612127565b73ffffffffffffffffffffffffffffffffffffffff16610cb96114f8565b73ffffffffffffffffffffffffffffffffffffffff1614610d0f576040517f08c379a0000000000000000000000000000000000000000000000000000000008152600401610d0690613ff0565b60405180910390fd5b806101305f6101000a81548173ffffffffffffffffffffffffffffffffffffffff021916908373ffffffffffffffffffffffffffffffffffffffff1602179055507fa0ca04e9956a42929fa24e6299bb6622c8703ac575c61b33e01fb170100ee6dc81604051610d7f91906136f0565b60405180910390a150565b610d92612127565b73ffffffffffffffffffffffffffffffffffffffff16610db06114f8565b73ffffffffffffffffffffffffffffffffffffffff1614610e06576040517f08c379a0000000000000000000000000000000000000000000000000000000008152600401610dfd90613ff0565b60405180910390fd5b806101325f6101000a81548160ff0219169083151502179055507fb332ca16caa1c4a06e0ac387e6f16243ed23af2575eb84c3417d16dbbfa3f34381604051610e4f9190613654565b60405180910390a150565b610e626112e4565b15610ea2576040517f08c379a0000000000000000000000000000000000000000000000000000000008152600401610e99906139bb565b60405180910390fd5b600260c95403610ee7576040517f08c379a0000000000000000000000000000000000000000000000000000000008152600401610ede90613a23565b60405180910390fd5b600260c9819055505f61012d5f8381526020019081526020015f209050806004015f9054906101000a900460ff16158015610f3157508060040160019054906101000a900460ff16155b610f70576040517f08c379a0000000000000000000000000000000000000000000000000000000008152600401610f679061407e565b60405180910390fd5b805f015f9054906101000a900473ffffffffffffffffffffffffffffffffffffffff1673ffffffffffffffffffffffffffffffffffffffff163373ffffffffffffffffffffffffffffffffffffffff161480610ffe5750610fcf6114f8565b73ffffffffffffffffffffffffffffffffffffffff163373ffffffffffffffffffffffffffffffffffffffff16145b61103d576040517f08c379a0000000000000000000000000000000000000000000000000000000008152600401611034906140e6565b60405180910390fd5b60018160040160016101000a81548160ff0219169083151502179055505f815f015f9054906101000a900473ffffffffffffffffffffffffffffffffffffffff1673ffffffffffffffffffffffffffffffffffffffff1682600201546040516110a590613ef5565b5f6040518083038185875af1925050503d805f81146110df576040519150601f19603f3d011682016040523d82523d5f602084013e6110e4565b606091505b5050905080611128576040517f08c379a000000000000000000000000000000000000000000000000000000000815260040161111f9061414e565b60405180910390fd5b827f956fb32199d8b882b2039a14e1be35ab14f7a80b9089fc223f14b43937173e6060405160405180910390a25050600160c98190555050565b61116b8161212e565b6111848160405180602001604052805f8152505f6121ad565b50565b61118f612127565b73ffffffffffffffffffffffffffffffffffffffff166111ad6114f8565b73ffffffffffffffffffffffffffffffffffffffff1614611203576040517f08c379a00000000000000000000000000000000000000000000000000000000081526004016111fa90613ff0565b60405180910390fd5b61120b6123b6565b565b611215612127565b73ffffffffffffffffffffffffffffffffffffffff166112336114f8565b73ffffffffffffffffffffffffffffffffffffffff1614611289576040517f08c379a000000000000000000000000000000000000000000000000000000000815260040161128090613ff0565b60405180910390fd5b8061012f819055507f8c4d35e54a3f2ef1134138fd8ea3daee6a3c89e10d2665996babdf70261e2c76816040516112c09190613367565b60405180910390a150565b6112d48261212e565b6112e0828260016121ad565b5050565b5f60fb5f9054906101000a900460ff16905090565b6101305f9054906101000a900473ffffffffffffffffffffffffffffffffffffffff1681565b6101325f9054906101000a900460ff1681565b61012f5481565b611341612127565b73ffffffffffffffffffffffffffffffffffffffff1661135f6114f8565b73ffffffffffffffffffffffffffffffffffffffff16146113b5576040517f08c379a00000000000000000000000000000000000000000000000000000000081526004016113ac90613ff0565b60405180910390fd5b5f73ffffffffffffffffffffffffffffffffffffffff1660975f9054906101000a900473ffffffffffffffffffffffffffffffffffffffff1673ffffffffffffffffffffffffffffffffffffffff167f8be0079c531659141344cd1fd0a4f28419497f9722a3daafe3b4186f6b6457e060405160405180910390a35f60975f6101000a81548173ffffffffffffffffffffffffffffffffffffffff021916908373ffffffffffffffffffffffffffffffffffffffff160217905550565b61147a612127565b73ffffffffffffffffffffffffffffffffffffffff166114986114f8565b73ffffffffffffffffffffffffffffffffffffffff16146114ee576040517f08c379a00000000000000000000000000000000000000000000000000000000081526004016114e590613ff0565b60405180910390fd5b6114f6612456565b565b5f60975f9054906101000a900473ffffffffffffffffffffffffffffffffffffffff16905090565b611528612127565b73ffffffffffffffffffffffffffffffffffffffff166115466114f8565b73ffffffffffffffffffffffffffffffffffffffff161461159c576040517f08c379a000000000000000000000000000000000000000000000000000000000815260040161159390613ff0565b60405180910390fd5b806101315f8473ffffffffffffffffffffffffffffffffffffffff1673ffffffffffffffffffffffffffffffffffffffff1681526020019081526020015f205f6101000a81548160ff0219169083151502179055507f6a12b3df6cba4203bd7fd06b816789f87de8c594299aed5717ae070fac781bac828260405161162292919061416c565b60405180910390a15050565b61012d602052805f5260405f205f91509050805f015f9054906101000a900473ffffffffffffffffffffffffffffffffffffffff1690806001015f9054906101000a900473ffffffffffffffffffffffffffffffffffffffff1690806002015490806003015490806004015f9054906101000a900460ff16908060040160019054906101000a900460ff16905086565b5f6101325f9054906101000a900460ff16905090565b60606116de612127565b73ffffffffffffffffffffffffffffffffffffffff166116fc6114f8565b73ffffffffffffffffffffffffffffffffffffffff1614611752576040517f08c379a000000000000000000000000000000000000000000000000000000000815260040161174990613ff0565b60405180910390fd5b5f61012e5467ffffffffffffffff8111156117705761176f6134c7565b5b6040519080825280602002602001820160405280156117a957816020015b61179661320a565b81526020019060019003908161178e5790505b5090505f5f90505b61012e548110156118f65761012d5f8281526020019081526020015f206040518060c00160405290815f82015f9054906101000a900473ffffffffffffffffffffffffffffffffffffffff1673ffffffffffffffffffffffffffffffffffffffff1673ffffffffffffffffffffffffffffffffffffffff168152602001600182015f9054906101000a900473ffffffffffffffffffffffffffffffffffffffff1673ffffffffffffffffffffffffffffffffffffffff1673ffffffffffffffffffffffffffffffffffffffff1681526020016002820154815260200160038201548152602001600482015f9054906101000a900460ff161515151581526020016004820160019054906101000a900460ff1615151515815250508282815181106118de576118dd614193565b5b602002602001018190525080806001019150506117b1565b508091505090565b61012e5481565b5f5f61190f6124f8565b9050612710818461192091906141c0565b61192a919061422e565b61012f546119389190613cf5565b915050919050565b5f60019054906101000a900460ff168061196557505f5f9054906101000a900460ff16155b6119a4576040517f08c379a000000000000000000000000000000000000000000000000000000000815260040161199b906142ce565b60405180910390fd5b5f5f60019054906101000a900460ff1615905080156119f15760015f60016101000a81548160ff02191690831515021790555060015f5f6101000a81548160ff0219169083151502179055505b6119f9612500565b611a016125e4565b611a096126c0565b611a116127a4565b8261012f81905550816101305f6101000a81548173ffffffffffffffffffffffffffffffffffffffff021916908373ffffffffffffffffffffffffffffffffffffffff16021790555060016101325f6101000a81548160ff0219169083151502179055508015611a95575f5f60016101000a81548160ff0219169083151502179055505b505050565b611aa26112e4565b15611ae2576040517f08c379a0000000000000000000000000000000000000000000000000000000008152600401611ad9906139bb565b60405180910390fd5b600260c95403611b27576040517f08c379a0000000000000000000000000000000000000000000000000000000008152600401611b1e90613a23565b60405180910390fd5b600260c98190555061012e548110611b74576040517f08c379a0000000000000000000000000000000000000000000000000000000008152600401611b6b90614336565b60405180910390fd5b5f61012d5f8381526020019081526020015f209050806004015f9054906101000a900460ff16158015611bb657508060040160019054906101000a900460ff16155b611bf5576040517f08c379a0000000000000000000000000000000000000000000000000000000008152600401611bec9061407e565b60405180910390fd5b8060030154421015611c3c576040517f08c379a0000000000000000000000000000000000000000000000000000000008152600401611c339061439e565b60405180910390fd5b5f61012d5f8481526020019081526020015f206002015411611c93576040517f08c379a0000000000000000000000000000000000000000000000000000000008152600401611c8a90614406565b60405180910390fd5b6001816004015f6101000a81548160ff0219169083151502179055505f816001015f9054906101000a900473ffffffffffffffffffffffffffffffffffffffff1673ffffffffffffffffffffffffffffffffffffffff168260020154604051611cfb90613ef5565b5f6040518083038185875af1925050503d805f8114611d35576040519150601f19603f3d011682016040523d82523d5f602084013e611d3a565b606091505b5050905080611d7e576040517f08c379a0000000000000000000000000000000000000000000000000000000008152600401611d7590613f53565b60405180910390fd5b827f36dc6b28af1028509a71e5c4781cbffb8dfd765a490d86d461c87271c652915d835f015f9054906101000a900473ffffffffffffffffffffffffffffffffffffffff16846001015f9054906101000a900473ffffffffffffffffffffffffffffffffffffffff168560020154604051611dfb93929190614424565b60405180910390a2827f125c303d2745ba43e60c57de35d34b738ad1b154806471677b642b884705a9de835f015f9054906101000a900473ffffffffffffffffffffffffffffffffffffffff16846001015f9054906101000a900473ffffffffffffffffffffffffffffffffffffffff16856002015442604051611e829493929190614459565b60405180910390a25050600160c98190555050565b611e9f612127565b73ffffffffffffffffffffffffffffffffffffffff16611ebd6114f8565b73ffffffffffffffffffffffffffffffffffffffff1614611f13576040517f08c379a0000000000000000000000000000000000000000000000000000000008152600401611f0a90613ff0565b60405180910390fd5b5f73ffffffffffffffffffffffffffffffffffffffff168173ffffffffffffffffffffffffffffffffffffffff1603611f81576040517f08c379a0000000000000000000000000000000000000000000000000000000008152600401611f789061450c565b60405180910390fd5b8073ffffffffffffffffffffffffffffffffffffffff1660975f9054906101000a900473ffffffffffffffffffffffffffffffffffffffff1673ffffffffffffffffffffffffffffffffffffffff167f8be0079c531659141344cd1fd0a4f28419497f9722a3daafe3b4186f6b6457e060405160405180910390a38060975f6101000a81548173ffffffffffffffffffffffffffffffffffffffff021916908373ffffffffffffffffffffffffffffffffffffffff16021790555050565b610131602052805f5260405f205f915054906101000a900460ff1681565b60605f600161206b84612888565b0190505f8167ffffffffffffffff811115612089576120886134c7565b5b6040519080825280601f01601f1916602001820160405280156120bb5781602001600182028036833780820191505090505b5090505f82602001820190505b60011561211c578080600190039150507f3031323334353637383961626364656600000000000000000000000000000000600a86061a8153600a858161211157612110614201565b5b0494505f85036120c8575b819350505050919050565b5f33905090565b612136612127565b73ffffffffffffffffffffffffffffffffffffffff166121546114f8565b73ffffffffffffffffffffffffffffffffffffffff16146121aa576040517f08c379a00000000000000000000000000000000000000000000000000000000081526004016121a190613ff0565b60405180910390fd5b50565b5f6121b66129d9565b90506121c184612a2c565b5f835111806121cd5750815b156121de576121dc8484612ae2565b505b5f61220a7f4910fdfa16fed3260ed0e7147f7cc6da11a60208b5b9406d12a635614ffd91435f1b612bc2565b9050805f015f9054906101000a900460ff166123af576001815f015f6101000a81548160ff0219169083151502179055506122d2858360405160240161225091906136f0565b6040516020818303038152906040527f3659cfe6000000000000000000000000000000000000000000000000000000007bffffffffffffffffffffffffffffffffffffffffffffffffffffffff19166020820180517bffffffffffffffffffffffffffffffffffffffffffffffffffffffff8381831617835250505050612ae2565b505f815f015f6101000a81548160ff0219169083151502179055506122f56129d9565b73ffffffffffffffffffffffffffffffffffffffff168273ffffffffffffffffffffffffffffffffffffffff1614612362576040517f08c379a00000000000000000000000000000000000000000000000000000000081526004016123599061459a565b60405180910390fd5b61236b85612a2c565b8473ffffffffffffffffffffffffffffffffffffffff167fbc7cd75a20ee27fd9adebab32041f755214dbc6bffa90cc0225b39da2e5c2d3b60405160405180910390a25b5050505050565b6123be6112e4565b6123fd576040517f08c379a00000000000000000000000000000000000000000000000000000000081526004016123f490614602565b60405180910390fd5b5f60fb5f6101000a81548160ff0219169083151502179055507f5db9ee0a495bf2e6ff9c91a7834c1ba4fdd244a5e8aa4e537bd38aeae4b073aa61243f612127565b60405161244c91906136f0565b60405180910390a1565b61245e6112e4565b1561249e576040517f08c379a0000000000000000000000000000000000000000000000000000000008152600401612495906139bb565b60405180910390fd5b600160fb5f6101000a81548160ff0219169083151502179055507f62e78cea01bee320cd4e420270b5ea74000d11b0c9f74754ebdbfc544b05a2586124e1612127565b6040516124ee91906136f0565b60405180910390a1565b5f6064905090565b5f60019054906101000a900460ff168061252557505f5f9054906101000a900460ff16155b612564576040517f08c379a000000000000000000000000000000000000000000000000000000000815260040161255b906142ce565b60405180910390fd5b5f5f60019054906101000a900460ff1615905080156125b15760015f60016101000a81548160ff02191690831515021790555060015f5f6101000a81548160ff0219169083151502179055505b6125b9612bcb565b6125c1612c9f565b80156125e1575f5f60016101000a81548160ff0219169083151502179055505b50565b5f60019054906101000a900460ff168061260957505f5f9054906101000a900460ff16155b612648576040517f08c379a000000000000000000000000000000000000000000000000000000000815260040161263f906142ce565b60405180910390fd5b5f5f60019054906101000a900460ff1615905080156126955760015f60016101000a81548160ff02191690831515021790555060015f5f6101000a81548160ff0219169083151502179055505b61269d612e19565b80156126bd575f5f60016101000a81548160ff0219169083151502179055505b50565b5f60019054906101000a900460ff16806126e557505f5f9054906101000a900460ff16155b612724576040517f08c379a000000000000000000000000000000000000000000000000000000000815260040161271b906142ce565b60405180910390fd5b5f5f60019054906101000a900460ff1615905080156127715760015f60016101000a81548160ff02191690831515021790555060015f5f6101000a81548160ff0219169083151502179055505b612779612bcb565b612781612ef5565b80156127a1575f5f60016101000a81548160ff0219169083151502179055505b50565b5f60019054906101000a900460ff16806127c957505f5f9054906101000a900460ff16155b612808576040517f08c379a00000000000000000000000000000000000000000000000000000000081526004016127ff906142ce565b60405180910390fd5b5f5f60019054906101000a900460ff1615905080156128555760015f60016101000a81548160ff02191690831515021790555060015f5f6101000a81548160ff0219169083151502179055505b61285d612fe2565b6128656130b6565b8015612885575f5f60016101000a81548160ff0219169083151502179055505b50565b5f5f5f90507a184f03e93ff9f4daa797ed6e38ed64bf6a1f01000000000000000083106128e4577a184f03e93ff9f4daa797ed6e38ed64bf6a1f01000000000000000083816128da576128d9614201565b5b0492506040810190505b6d04ee2d6d415b85acef81000000008310612921576d04ee2d6d415b85acef8100000000838161291757612916614201565b5b0492506020810190505b662386f26fc10000831061295057662386f26fc10000838161294657612945614201565b5b0492506010810190505b6305f5e1008310612979576305f5e100838161296f5761296e614201565b5b0492506008810190505b612710831061299e57612710838161299457612993614201565b5b0492506004810190505b606483106129c157606483816129b7576129b6614201565b5b0492506002810190505b600a83106129d0576001810190505b80915050919050565b5f612a057f360894a13ba1a3210667c828492db98dca3e2076cc3735a920a3ca505d382bbc5f1b61318a565b5f015f9054906101000a900473ffffffffffffffffffffffffffffffffffffffff16905090565b612a3581613193565b612a74576040517f08c379a0000000000000000000000000000000000000000000000000000000008152600401612a6b90614690565b60405180910390fd5b80612aa07f360894a13ba1a3210667c828492db98dca3e2076cc3735a920a3ca505d382bbc5f1b61318a565b5f015f6101000a81548173ffffffffffffffffffffffffffffffffffffffff021916908373ffffffffffffffffffffffffffffffffffffffff16021790555050565b6060612aed83613193565b612b2c576040517f08c379a0000000000000000000000000000000000000000000000000000000008152600401612b239061471e565b60405180910390fd5b5f5f8473ffffffffffffffffffffffffffffffffffffffff1684604051612b539190614776565b5f60405180830381855af49150503d805f8114612b8b576040519150601f19603f3d011682016040523d82523d5f602084013e612b90565b606091505b5091509150612bb8828260405180606001604052806027815260200161478d602791396131a4565b9250505092915050565b5f819050919050565b5f60019054906101000a900460ff1680612bf057505f5f9054906101000a900460ff16155b612c2f576040517f08c379a0000000000000000000000000000000000000000000000000000000008152600401612c26906142ce565b60405180910390fd5b5f5f60019054906101000a900460ff161590508015612c7c5760015f60016101000a81548160ff02191690831515021790555060015f5f6101000a81548160ff0219169083151502179055505b8015612c9c575f5f60016101000a81548160ff0219169083151502179055505b50565b5f60019054906101000a900460ff1680612cc457505f5f9054906101000a900460ff16155b612d03576040517f08c379a0000000000000000000000000000000000000000000000000000000008152600401612cfa906142ce565b60405180910390fd5b5f5f60019054906101000a900460ff161590508015612d505760015f60016101000a81548160ff02191690831515021790555060015f5f6101000a81548160ff0219169083151502179055505b5f612d59612127565b90508060975f6101000a81548173ffffffffffffffffffffffffffffffffffffffff021916908373ffffffffffffffffffffffffffffffffffffffff1602179055508073ffffffffffffffffffffffffffffffffffffffff165f73ffffffffffffffffffffffffffffffffffffffff167f8be0079c531659141344cd1fd0a4f28419497f9722a3daafe3b4186f6b6457e060405160405180910390a3508015612e16575f5f60016101000a81548160ff0219169083151502179055505b50565b5f60019054906101000a900460ff1680612e3e57505f5f9054906101000a900460ff16155b612e7d576040517f08c379a0000000000000000000000000000000000000000000000000000000008152600401612e74906142ce565b60405180910390fd5b5f5f60019054906101000a900460ff161590508015612eca5760015f60016101000a81548160ff02191690831515021790555060015f5f6101000a81548160ff0219169083151502179055505b600160c9819055508015612ef2575f5f60016101000a81548160ff0219169083151502179055505b50565b5f60019054906101000a900460ff1680612f1a57505f5f9054906101000a900460ff16155b612f59576040517f08c379a0000000000000000000000000000000000000000000000000000000008152600401612f50906142ce565b60405180910390fd5b5f5f60019054906101000a900460ff161590508015612fa65760015f60016101000a81548160ff02191690831515021790555060015f5f6101000a81548160ff0219169083151502179055505b5f60fb5f6101000a81548160ff0219169083151502179055508015612fdf575f5f60016101000a81548160ff0219169083151502179055505b50565b5f60019054906101000a900460ff168061300757505f5f9054906101000a900460ff16155b613046576040517f08c379a000000000000000000000000000000000000000000000000000000000815260040161303d906142ce565b60405180910390fd5b5f5f60019054906101000a900460ff1615905080156130935760015f60016101000a81548160ff02191690831515021790555060015f5f6101000a81548160ff0219169083151502179055505b80156130b3575f5f60016101000a81548160ff0219169083151502179055505b50565b5f60019054906101000a900460ff16806130db57505f5f9054906101000a900460ff16155b61311a576040517f08c379a0000000000000000000000000000000000000000000000000000000008152600401613111906142ce565b60405180910390fd5b5f5f60019054906101000a900460ff1615905080156131675760015f60016101000a81548160ff02191690831515021790555060015f5f6101000a81548160ff0219169083151502179055505b8015613187575f5f60016101000a81548160ff0219169083151502179055505b50565b5f819050919050565b5f5f823b90505f8111915050919050565b606083156131b457829050613203565b5f835111156131c65782518084602001fd5b816040517f08c379a00000000000000000000000000000000000000000000000000000000081526004016131fa9190613ca8565b60405180910390fd5b9392505050565b6040518060c001604052805f73ffffffffffffffffffffffffffffffffffffffff1681526020015f73ffffffffffffffffffffffffffffffffffffffff1681526020015f81526020015f81526020015f151581526020015f151581525090565b5f604051905090565b5f5ffd5b5f5ffd5b5f73ffffffffffffffffffffffffffffffffffffffff82169050919050565b5f6132a48261327b565b9050919050565b6132b48161329a565b81146132be575f5ffd5b50565b5f813590506132cf816132ab565b92915050565b5f819050919050565b6132e7816132d5565b81146132f1575f5ffd5b50565b5f81359050613302816132de565b92915050565b5f5f5f6060848603121561331f5761331e613273565b5b5f61332c868287016132c1565b935050602061333d868287016132f4565b925050604061334e868287016132f4565b9150509250925092565b613361816132d5565b82525050565b5f60208201905061337a5f830184613358565b92915050565b5f5f6040838503121561339657613395613273565b5b5f6133a3858286016132c1565b92505060206133b4858286016132f4565b9150509250929050565b5f6133c88261327b565b9050919050565b6133d8816133be565b81146133e2575f5ffd5b50565b5f813590506133f3816133cf565b92915050565b5f6020828403121561340e5761340d613273565b5b5f61341b848285016133e5565b91505092915050565b5f8115159050919050565b61343881613424565b8114613442575f5ffd5b50565b5f813590506134538161342f565b92915050565b5f6020828403121561346e5761346d613273565b5b5f61347b84828501613445565b91505092915050565b5f6020828403121561349957613498613273565b5b5f6134a6848285016132f4565b91505092915050565b5f5ffd5b5f5ffd5b5f601f19601f8301169050919050565b7f4e487b71000000000000000000000000000000000000000000000000000000005f52604160045260245ffd5b6134fd826134b7565b810181811067ffffffffffffffff8211171561351c5761351b6134c7565b5b80604052505050565b5f61352e61326a565b905061353a82826134f4565b919050565b5f67ffffffffffffffff821115613559576135586134c7565b5b613562826134b7565b9050602081019050919050565b828183375f83830152505050565b5f61358f61358a8461353f565b613525565b9050828152602081018484840111156135ab576135aa6134b3565b5b6135b684828561356f565b509392505050565b5f82601f8301126135d2576135d16134af565b5b81356135e284826020860161357d565b91505092915050565b5f5f6040838503121561360157613600613273565b5b5f61360e858286016133e5565b925050602083013567ffffffffffffffff81111561362f5761362e613277565b5b61363b858286016135be565b9150509250929050565b61364e81613424565b82525050565b5f6020820190506136675f830184613645565b92915050565b5f819050919050565b5f61369061368b6136868461327b565b61366d565b61327b565b9050919050565b5f6136a182613676565b9050919050565b5f6136b282613697565b9050919050565b6136c2816136a8565b82525050565b5f6020820190506136db5f8301846136b9565b92915050565b6136ea816133be565b82525050565b5f6020820190506137035f8301846136e1565b92915050565b5f5f6040838503121561371f5761371e613273565b5b5f61372c858286016133e5565b925050602061373d85828601613445565b9150509250929050565b6137508161329a565b82525050565b5f60c0820190506137695f830189613747565b6137766020830188613747565b6137836040830187613358565b6137906060830186613358565b61379d6080830185613645565b6137aa60a0830184613645565b979650505050505050565b5f81519050919050565b5f82825260208201905092915050565b5f819050602082019050919050565b6137e78161329a565b82525050565b6137f6816132d5565b82525050565b61380581613424565b82525050565b60c082015f82015161381f5f8501826137de565b50602082015161383260208501826137de565b50604082015161384560408501826137ed565b50606082015161385860608501826137ed565b50608082015161386b60808501826137fc565b5060a082015161387e60a08501826137fc565b50505050565b5f61388f838361380b565b60c08301905092915050565b5f602082019050919050565b5f6138b1826137b5565b6138bb81856137bf565b93506138c6836137cf565b805f5b838110156138f65781516138dd8882613884565b97506138e88361389b565b9250506001810190506138c9565b5085935050505092915050565b5f6020820190508181035f83015261391b81846138a7565b905092915050565b5f5f6040838503121561393957613938613273565b5b5f613946858286016132f4565b9250506020613957858286016133e5565b9150509250929050565b5f82825260208201905092915050565b7f5061757361626c653a20706175736564000000000000000000000000000000005f82015250565b5f6139a5601083613961565b91506139b082613971565b602082019050919050565b5f6020820190508181035f8301526139d281613999565b9050919050565b7f5265656e7472616e637947756172643a207265656e7472616e742063616c6c005f82015250565b5f613a0d601f83613961565b9150613a18826139d9565b602082019050919050565b5f6020820190508181035f830152613a3a81613a01565b9050919050565b7f53656e64657220697320626c61636b6c697374656400000000000000000000005f82015250565b5f613a75601583613961565b9150613a8082613a41565b602082019050919050565b5f6020820190508181035f830152613aa281613a69565b9050919050565b7f416d6f756e74206d7573742062652067726561746572207468616e20300000005f82015250565b5f613add601d83613961565b9150613ae882613aa9565b602082019050919050565b5f6020820190508181035f830152613b0a81613ad1565b9050919050565b5f81905092915050565b7f5363686564756c65642074696d65206d75737420626520696e207468652066755f8201527f747572652e2043757272656e742074696d653a20000000000000000000000000602082015250565b5f613b75603483613b11565b9150613b8082613b1b565b603482019050919050565b5f81519050919050565b5f5b83811015613bb2578082015181840152602081019050613b97565b5f8484015250505050565b5f613bc782613b8b565b613bd18185613b11565b9350613be1818560208601613b95565b80840191505092915050565b7f2c205363686564756c65642074696d653a2000000000000000000000000000005f82015250565b5f613c21601283613b11565b9150613c2c82613bed565b601282019050919050565b5f613c4182613b69565b9150613c4d8285613bbd565b9150613c5882613c15565b9150613c648284613bbd565b91508190509392505050565b5f613c7a82613b8b565b613c848185613961565b9350613c94818560208601613b95565b613c9d816134b7565b840191505092915050565b5f6020820190508181035f830152613cc08184613c70565b905092915050565b7f4e487b71000000000000000000000000000000000000000000000000000000005f52601160045260245ffd5b5f613cff826132d5565b9150613d0a836132d5565b9250828201905080821115613d2257613d21613cc8565b5b92915050565b7f53656e742076616c7565206d757374206d6174636820746865207472616e73615f8201527f6374696f6e20616d6f756e7420706c7573206665650000000000000000000000602082015250565b5f613d82603583613961565b9150613d8d82613d28565b604082019050919050565b5f6020820190508181035f830152613daf81613d76565b9050919050565b5f613dc0826132d5565b91507fffffffffffffffffffffffffffffffffffffffffffffffffffffffffffffffff8203613df257613df1613cc8565b5b600182019050919050565b5f613e0782613697565b9050919050565b613e1781613dfd565b82525050565b5f608082019050613e305f8301876136e1565b613e3d6020830186613e0e565b613e4a6040830185613358565b613e576060830184613358565b95945050505050565b7f436f6e74726163742069732064697361626c65640000000000000000000000005f82015250565b5f613e94601483613961565b9150613e9f82613e60565b602082019050919050565b5f6020820190508181035f830152613ec181613e88565b9050919050565b5f81905092915050565b50565b5f613ee05f83613ec8565b9150613eeb82613ed2565b5f82019050919050565b5f613eff82613ed5565b9150819050919050565b7f5472616e73666572206661696c656400000000000000000000000000000000005f82015250565b5f613f3d600f83613961565b9150613f4882613f09565b602082019050919050565b5f6020820190508181035f830152613f6a81613f31565b9050919050565b5f606082019050613f845f8301866136e1565b613f916020830185613e0e565b613f9e6040830184613358565b949350505050565b7f4f776e61626c653a2063616c6c6572206973206e6f7420746865206f776e65725f82015250565b5f613fda602083613961565b9150613fe582613fa6565b602082019050919050565b5f6020820190508181035f83015261400781613fce565b9050919050565b7f5472616e73616374696f6e20616c7265616479206578656375746564206f72205f8201527f63616e63656c6c65640000000000000000000000000000000000000000000000602082015250565b5f614068602983613961565b91506140738261400e565b604082019050919050565b5f6020820190508181035f8301526140958161405c565b9050919050565b7f4e6f7420617574686f72697a656420746f2063616e63656c00000000000000005f82015250565b5f6140d0601883613961565b91506140db8261409c565b602082019050919050565b5f6020820190508181035f8301526140fd816140c4565b9050919050565b7f526566756e64206661696c6564000000000000000000000000000000000000005f82015250565b5f614138600d83613961565b915061414382614104565b602082019050919050565b5f6020820190508181035f8301526141658161412c565b9050919050565b5f60408201905061417f5f8301856136e1565b61418c6020830184613645565b9392505050565b7f4e487b71000000000000000000000000000000000000000000000000000000005f52603260045260245ffd5b5f6141ca826132d5565b91506141d5836132d5565b92508282026141e3816132d5565b915082820484148315176141fa576141f9613cc8565b5b5092915050565b7f4e487b71000000000000000000000000000000000000000000000000000000005f52601260045260245ffd5b5f614238826132d5565b9150614243836132d5565b92508261425357614252614201565b5b828204905092915050565b7f496e697469616c697a61626c653a20636f6e747261637420697320616c7265615f8201527f647920696e697469616c697a6564000000000000000000000000000000000000602082015250565b5f6142b8602e83613961565b91506142c38261425e565b604082019050919050565b5f6020820190508181035f8301526142e5816142ac565b9050919050565b7f496e76616c6964207472616e73616374696f6e204944000000000000000000005f82015250565b5f614320601683613961565b915061432b826142ec565b602082019050919050565b5f6020820190508181035f83015261434d81614314565b9050919050565b7f5472616e73616374696f6e206e6f7420796574206475650000000000000000005f82015250565b5f614388601783613961565b915061439382614354565b602082019050919050565b5f6020820190508181035f8301526143b58161437c565b9050919050565b7f496e76616c6964207472616e73616374696f6e20616d6f756e740000000000005f82015250565b5f6143f0601a83613961565b91506143fb826143bc565b602082019050919050565b5f6020820190508181035f83015261441d816143e4565b9050919050565b5f6060820190506144375f830186613e0e565b6144446020830185613e0e565b6144516040830184613358565b949350505050565b5f60808201905061446c5f830187613e0e565b6144796020830186613e0e565b6144866040830185613358565b6144936060830184613358565b95945050505050565b7f4f776e61626c653a206e6577206f776e657220697320746865207a65726f20615f8201527f6464726573730000000000000000000000000000000000000000000000000000602082015250565b5f6144f6602683613961565b91506145018261449c565b604082019050919050565b5f6020820190508181035f830152614523816144ea565b9050919050565b7f45524331393637557067726164653a207570677261646520627265616b7320665f8201527f7572746865722075706772616465730000000000000000000000000000000000602082015250565b5f614584602f83613961565b915061458f8261452a565b604082019050919050565b5f6020820190508181035f8301526145b181614578565b9050919050565b7f5061757361626c653a206e6f74207061757365640000000000000000000000005f82015250565b5f6145ec601483613961565b91506145f7826145b8565b602082019050919050565b5f6020820190508181035f830152614619816145e0565b9050919050565b7f455243313936373a206e657720696d706c656d656e746174696f6e206973206e5f8201527f6f74206120636f6e747261637400000000000000000000000000000000000000602082015250565b5f61467a602d83613961565b915061468582614620565b604082019050919050565b5f6020820190508181035f8301526146a78161466e565b9050919050565b7f416464726573733a2064656c65676174652063616c6c20746f206e6f6e2d636f5f8201527f6e74726163740000000000000000000000000000000000000000000000000000602082015250565b5f614708602683613961565b9150614713826146ae565b604082019050919050565b5f6020820190508181035f830152614735816146fc565b9050919050565b5f81519050919050565b5f6147508261473c565b61475a8185613ec8565b935061476a818560208601613b95565b80840191505092915050565b5f6147818284614746565b91508190509291505056fe416464726573733a206c6f772d6c6576656c2064656c65676174652063616c6c206661696c6564a26469706673582212200d530947dc7a2ef05fad692f4f8b6440a610fd3a269db87bac36e3e243d029a064736f6c634300081c0033",
  "linkReferences": {},
  "deployedLinkReferences": {}
}