{
    "_format": "hh-sol-artifact-1",
    "contractName": "PaymentScheduler",
    "sourceName": "contracts/PaymentScheduler.sol",
    "abi": [
        {
            "anonymous": false,
            "inputs": [
                {
                    "indexed": false,
                    "internalType": "address",
                    "name": "previousAdmin",
                    "type": "address"
                },
                {
                    "indexed": false,
                    "internalType": "address",
                    "name": "newAdmin",
                    "type": "address"
                }
            ],
            "name": "AdminChanged",
            "type": "event"
        },
        {
            "anonymous": false,
            "inputs": [
                {
                    "indexed": true,
                    "internalType": "address",
                    "name": "beacon",
                    "type": "address"
                }
            ],
            "name": "BeaconUpgraded",
            "type": "event"
        },
        {
            "anonymous": false,
            "inputs": [
                {
                    "indexed": false,
                    "internalType": "address",
                    "name": "user",
                    "type": "address"
                },
                {
                    "indexed": false,
                    "internalType": "bool",
                    "name": "status",
                    "type": "bool"
                }
            ],
            "name": "BlacklistUpdated",
            "type": "event"
        },
        {
            "anonymous": false,
            "inputs": [
                {
                    "indexed": false,
                    "internalType": "bool",
                    "name": "status",
                    "type": "bool"
                }
            ],
            "name": "ContractEnabled",
            "type": "event"
        },
        {
            "anonymous": false,
            "inputs": [
                {
                    "indexed": false,
                    "internalType": "address",
                    "name": "newFeeToken",
                    "type": "address"
                }
            ],
            "name": "FeeTokenUpdated",
            "type": "event"
        },
        {
            "anonymous": false,
            "inputs": [
                {
                    "indexed": false,
                    "internalType": "uint256",
                    "name": "newFee",
                    "type": "uint256"
                }
            ],
            "name": "FeeUpdated",
            "type": "event"
        },
        {
            "anonymous": false,
            "inputs": [
                {
                    "indexed": false,
                    "internalType": "address",
                    "name": "sender",
                    "type": "address"
                },
                {
                    "indexed": false,
                    "internalType": "address",
                    "name": "recipient",
                    "type": "address"
                },
                {
                    "indexed": false,
                    "internalType": "uint256",
                    "name": "amount",
                    "type": "uint256"
                }
            ],
            "name": "InstantTransactionExecuted",
            "type": "event"
        },
        {
            "anonymous": false,
            "inputs": [
                {
                    "indexed": true,
                    "internalType": "address",
                    "name": "previousOwner",
                    "type": "address"
                },
                {
                    "indexed": true,
                    "internalType": "address",
                    "name": "newOwner",
                    "type": "address"
                }
            ],
            "name": "OwnershipTransferred",
            "type": "event"
        },
        {
            "anonymous": false,
            "inputs": [
                {
                    "indexed": false,
                    "internalType": "address",
                    "name": "account",
                    "type": "address"
                }
            ],
            "name": "Paused",
            "type": "event"
        },
        {
            "anonymous": false,
            "inputs": [
                {
                    "indexed": true,
                    "internalType": "uint256",
                    "name": "id",
                    "type": "uint256"
                }
            ],
            "name": "TransactionCancelled",
            "type": "event"
        },
        {
            "anonymous": false,
            "inputs": [
                {
                    "indexed": true,
                    "internalType": "uint256",
                    "name": "id",
                    "type": "uint256"
                },
                {
                    "indexed": false,
                    "internalType": "address",
                    "name": "sender",
                    "type": "address"
                },
                {
                    "indexed": false,
                    "internalType": "address",
                    "name": "recipient",
                    "type": "address"
                },
                {
                    "indexed": false,
                    "internalType": "uint256",
                    "name": "amount",
                    "type": "uint256"
                }
            ],
            "name": "TransactionExecuted",
            "type": "event"
        },
        {
            "anonymous": false,
            "inputs": [
                {
                    "indexed": true,
                    "internalType": "uint256",
                    "name": "id",
                    "type": "uint256"
                },
                {
                    "indexed": false,
                    "internalType": "address",
                    "name": "sender",
                    "type": "address"
                },
                {
                    "indexed": false,
                    "internalType": "address",
                    "name": "recipient",
                    "type": "address"
                },
                {
                    "indexed": false,
                    "internalType": "uint256",
                    "name": "amount",
                    "type": "uint256"
                },
                {
                    "indexed": false,
                    "internalType": "uint256",
                    "name": "executionTime",
                    "type": "uint256"
                },
                {
                    "indexed": false,
                    "internalType": "bool",
                    "name": "success",
                    "type": "bool"
                }
            ],
            "name": "TransactionExecutionDetails",
            "type": "event"
        },
        {
            "anonymous": false,
            "inputs": [
                {
                    "indexed": true,
                    "internalType": "uint256",
                    "name": "id",
                    "type": "uint256"
                },
                {
                    "indexed": false,
                    "internalType": "address",
                    "name": "sender",
                    "type": "address"
                },
                {
                    "indexed": false,
                    "internalType": "address",
                    "name": "recipient",
                    "type": "address"
                },
                {
                    "indexed": false,
                    "internalType": "uint256",
                    "name": "amount",
                    "type": "uint256"
                },
                {
                    "indexed": false,
                    "internalType": "uint256",
                    "name": "scheduledTime",
                    "type": "uint256"
                }
            ],
            "name": "TransactionScheduled",
            "type": "event"
        },
        {
            "anonymous": false,
            "inputs": [
                {
                    "indexed": false,
                    "internalType": "address",
                    "name": "account",
                    "type": "address"
                }
            ],
            "name": "Unpaused",
            "type": "event"
        },
        {
            "anonymous": false,
            "inputs": [
                {
                    "indexed": true,
                    "internalType": "address",
                    "name": "implementation",
                    "type": "address"
                }
            ],
            "name": "Upgraded",
            "type": "event"
        },
        {
            "inputs": [],
            "name": "baseFee",
            "outputs": [
                {
                    "internalType": "uint256",
                    "name": "",
                    "type": "uint256"
                }
            ],
            "stateMutability": "view",
            "type": "function"
        },
        {
            "inputs": [
                {
                    "internalType": "address",
                    "name": "",
                    "type": "address"
                }
            ],
            "name": "blacklist",
            "outputs": [
                {
                    "internalType": "bool",
                    "name": "",
                    "type": "bool"
                }
            ],
            "stateMutability": "view",
            "type": "function"
        },
        {
            "inputs": [
                {
                    "internalType": "uint256",
                    "name": "amount",
                    "type": "uint256"
                }
            ],
            "name": "calculateDynamicFee",
            "outputs": [
                {
                    "internalType": "uint256",
                    "name": "",
                    "type": "uint256"
                }
            ],
            "stateMutability": "view",
            "type": "function"
        },
        {
            "inputs": [
                {
                    "internalType": "uint256",
                    "name": "id",
                    "type": "uint256"
                }
            ],
            "name": "cancelTransaction",
            "outputs": [],
            "stateMutability": "nonpayable",
            "type": "function"
        },
        {
            "inputs": [
                {
                    "internalType": "uint256",
                    "name": "id",
                    "type": "uint256"
                }
            ],
            "name": "executeTransaction",
            "outputs": [],
            "stateMutability": "nonpayable",
            "type": "function"
        },
        {
            "inputs": [],
            "name": "feeToken",
            "outputs": [
                {
                    "internalType": "contract IERC20Upgradeable",
                    "name": "",
                    "type": "address"
                }
            ],
            "stateMutability": "view",
            "type": "function"
        },
        {
            "inputs": [],
            "name": "getAllScheduledTransactions",
            "outputs": [
                {
                    "components": [
                        {
                            "internalType": "address payable",
                            "name": "sender",
                            "type": "address"
                        },
                        {
                            "internalType": "address payable",
                            "name": "recipient",
                            "type": "address"
                        },
                        {
                            "internalType": "uint256",
                            "name": "amount",
                            "type": "uint256"
                        },
                        {
                            "internalType": "uint256",
                            "name": "scheduledTime",
                            "type": "uint256"
                        },
                        {
                            "internalType": "bool",
                            "name": "executed",
                            "type": "bool"
                        },
                        {
                            "internalType": "bool",
                            "name": "cancelled",
                            "type": "bool"
                        }
                    ],
                    "internalType": "struct PaymentScheduler.Transaction[]",
                    "name": "",
                    "type": "tuple[]"
                }
            ],
            "stateMutability": "view",
            "type": "function"
        },
        {
            "inputs": [
                {
                    "internalType": "uint256",
                    "name": "id",
                    "type": "uint256"
                }
            ],
            "name": "getTransactionStatus",
            "outputs": [
                {
                    "internalType": "bool",
                    "name": "executed",
                    "type": "bool"
                },
                {
                    "internalType": "bool",
                    "name": "cancelled",
                    "type": "bool"
                },
                {
                    "internalType": "uint256",
                    "name": "scheduledTime",
                    "type": "uint256"
                }
            ],
            "stateMutability": "view",
            "type": "function"
        },
        {
            "inputs": [
                {
                    "internalType": "uint256",
                    "name": "_baseFee",
                    "type": "uint256"
                },
                {
                    "internalType": "address",
                    "name": "_feeToken",
                    "type": "address"
                }
            ],
            "name": "initialize",
            "outputs": [],
            "stateMutability": "nonpayable",
            "type": "function"
        },
        {
            "inputs": [
                {
                    "internalType": "address payable",
                    "name": "recipient",
                    "type": "address"
                },
                {
                    "internalType": "uint256",
                    "name": "amount",
                    "type": "uint256"
                }
            ],
            "name": "instantTransaction",
            "outputs": [],
            "stateMutability": "payable",
            "type": "function"
        },
        {
            "inputs": [],
            "name": "isContractEnabled",
            "outputs": [
                {
                    "internalType": "bool",
                    "name": "",
                    "type": "bool"
                }
            ],
            "stateMutability": "view",
            "type": "function"
        },
        {
            "inputs": [],
            "name": "isEnabled",
            "outputs": [
                {
                    "internalType": "bool",
                    "name": "",
                    "type": "bool"
                }
            ],
            "stateMutability": "view",
            "type": "function"
        },
        {
            "inputs": [],
            "name": "owner",
            "outputs": [
                {
                    "internalType": "address",
                    "name": "",
                    "type": "address"
                }
            ],
            "stateMutability": "view",
            "type": "function"
        },
        {
            "inputs": [],
            "name": "pause",
            "outputs": [],
            "stateMutability": "nonpayable",
            "type": "function"
        },
        {
            "inputs": [],
            "name": "paused",
            "outputs": [
                {
                    "internalType": "bool",
                    "name": "",
                    "type": "bool"
                }
            ],
            "stateMutability": "view",
            "type": "function"
        },
        {
            "inputs": [],
            "name": "renounceOwnership",
            "outputs": [],
            "stateMutability": "nonpayable",
            "type": "function"
        },
        {
            "inputs": [
                {
                    "internalType": "address payable",
                    "name": "recipient",
                    "type": "address"
                },
                {
                    "internalType": "uint256",
                    "name": "amount",
                    "type": "uint256"
                },
                {
                    "internalType": "uint256",
                    "name": "scheduledTime",
                    "type": "uint256"
                }
            ],
            "name": "scheduleTransaction",
            "outputs": [],
            "stateMutability": "payable",
            "type": "function"
        },
        {
            "inputs": [
                {
                    "internalType": "uint256",
                    "name": "newBaseFee",
                    "type": "uint256"
                }
            ],
            "name": "setBaseFee",
            "outputs": [],
            "stateMutability": "nonpayable",
            "type": "function"
        },
        {
            "inputs": [
                {
                    "internalType": "bool",
                    "name": "_isEnabled",
                    "type": "bool"
                }
            ],
            "name": "setEnabled",
            "outputs": [],
            "stateMutability": "nonpayable",
            "type": "function"
        },
        {
            "inputs": [
                {
                    "internalType": "address",
                    "name": "newFeeToken",
                    "type": "address"
                }
            ],
            "name": "setFeeToken",
            "outputs": [],
            "stateMutability": "nonpayable",
            "type": "function"
        },
        {
            "inputs": [],
            "name": "transactionCount",
            "outputs": [
                {
                    "internalType": "uint256",
                    "name": "",
                    "type": "uint256"
                }
            ],
            "stateMutability": "view",
            "type": "function"
        },
        {
            "inputs": [
                {
                    "internalType": "uint256",
                    "name": "",
                    "type": "uint256"
                }
            ],
            "name": "transactions",
            "outputs": [
                {
                    "internalType": "address payable",
                    "name": "sender",
                    "type": "address"
                },
                {
                    "internalType": "address payable",
                    "name": "recipient",
                    "type": "address"
                },
                {
                    "internalType": "uint256",
                    "name": "amount",
                    "type": "uint256"
                },
                {
                    "internalType": "uint256",
                    "name": "scheduledTime",
                    "type": "uint256"
                },
                {
                    "internalType": "bool",
                    "name": "executed",
                    "type": "bool"
                },
                {
                    "internalType": "bool",
                    "name": "cancelled",
                    "type": "bool"
                }
            ],
            "stateMutability": "view",
            "type": "function"
        },
        {
            "inputs": [
                {
                    "internalType": "address",
                    "name": "newOwner",
                    "type": "address"
                }
            ],
            "name": "transferOwnership",
            "outputs": [],
            "stateMutability": "nonpayable",
            "type": "function"
        },
        {
            "inputs": [],
            "name": "unpause",
            "outputs": [],
            "stateMutability": "nonpayable",
            "type": "function"
        },
        {
            "inputs": [
                {
                    "internalType": "address",
                    "name": "user",
                    "type": "address"
                },
                {
                    "internalType": "bool",
                    "name": "status",
                    "type": "bool"
                }
            ],
            "name": "updateBlacklist",
            "outputs": [],
            "stateMutability": "nonpayable",
            "type": "function"
        },
        {
            "inputs": [
                {
                    "internalType": "address",
                    "name": "newImplementation",
                    "type": "address"
                }
            ],
            "name": "upgradeTo",
            "outputs": [],
            "stateMutability": "nonpayable",
            "type": "function"
        },
        {
            "inputs": [
                {
                    "internalType": "address",
                    "name": "newImplementation",
                    "type": "address"
                },
                {
                    "internalType": "bytes",
                    "name": "data",
                    "type": "bytes"
                }
            ],
            "name": "upgradeToAndCall",
            "outputs": [],
            "stateMutability": "payable",
            "type": "function"
        },
        {
            "stateMutability": "payable",
            "type": "receive"
        }
    ],
    "bytecode": "0x6080604052348015600e575f5ffd5b506149378061001c5f395ff3fe60806040526004361061019f575f3560e01c80636ef25c3a116100eb578063aac2ccad11610089578063da35a26f11610063578063da35a26f1461053b578063ee22610b14610563578063f2fde38b1461058b578063f9f92be4146105b3576101a6565b8063aac2ccad146104ab578063b77bf600146104d5578063d62a0f81146104ff576101a6565b80638da5cb5b116100c55780638da5cb5b146103ee5780639155e083146104185780639ace38c2146104405780639d602d2d14610481576101a6565b80636ef25c3a14610398578063715018a6146103c25780638456cb59146103d8576101a6565b80633f4ba83a116101585780635c975abb116101325780635c975abb146102dc578063647846a5146103065780636aa633b6146103305780636bbc379d1461035a576101a6565b80633f4ba83a1461028257806346860698146102985780634f1ef286146102c0576101a6565b806302e8d8c0146101aa57806303239d8e146101c657806315cce224146101e2578063328d8f721461020a5780633380c0d8146102325780633659cfe61461025a576101a6565b366101a657005b5f5ffd5b6101c460048036038101906101bf9190613448565b6105ef565b005b6101e060048036038101906101db9190613498565b610a2b565b005b3480156101ed575f5ffd5b5061020860048036038101906102039190613511565b610d26565b005b348015610215575f5ffd5b50610230600480360381019061022b9190613571565b610e1d565b005b34801561023d575f5ffd5b506102586004803603810190610253919061359c565b610eed565b005b348015610265575f5ffd5b50610280600480360381019061027b9190613511565b611244565b005b34801561028d575f5ffd5b50610296611269565b005b3480156102a3575f5ffd5b506102be60048036038101906102b9919061359c565b6112ef565b005b6102da60048036038101906102d59190613703565b6113ad565b005b3480156102e7575f5ffd5b506102f06113c6565b6040516102fd919061376c565b60405180910390f35b348015610311575f5ffd5b5061031a6113db565b60405161032791906137e0565b60405180910390f35b34801561033b575f5ffd5b50610344611401565b604051610351919061376c565b60405180910390f35b348015610365575f5ffd5b50610380600480360381019061037b919061359c565b611414565b60405161038f93929190613808565b60405180910390f35b3480156103a3575f5ffd5b506103ac611462565b6040516103b9919061383d565b60405180910390f35b3480156103cd575f5ffd5b506103d6611469565b005b3480156103e3575f5ffd5b506103ec6115a2565b005b3480156103f9575f5ffd5b50610402611628565b60405161040f9190613865565b60405180910390f35b348015610423575f5ffd5b5061043e6004803603810190610439919061387e565b611650565b005b34801561044b575f5ffd5b506104666004803603810190610461919061359c565b61175e565b604051610478969594939291906138cb565b60405180910390f35b34801561048c575f5ffd5b506104956117ee565b6040516104a2919061376c565b60405180910390f35b3480156104b6575f5ffd5b506104bf611804565b6040516104cc9190613a78565b60405180910390f35b3480156104e0575f5ffd5b506104e9611a2e565b6040516104f6919061383d565b60405180910390f35b34801561050a575f5ffd5b506105256004803603810190610520919061359c565b611a35565b604051610532919061383d565b60405180910390f35b348015610546575f5ffd5b50610561600480360381019061055c9190613a98565b611a70565b005b34801561056e575f5ffd5b506105896004803603810190610584919061359c565b611bca565b005b348015610596575f5ffd5b506105b160048036038101906105ac9190613511565b611fd7565b005b3480156105be575f5ffd5b506105d960048036038101906105d49190613511565b61217f565b6040516105e6919061376c565b60405180910390f35b6105f76113c6565b15610637576040517f08c379a000000000000000000000000000000000000000000000000000000000815260040161062e90613b30565b60405180910390fd5b6101325f9054906101000a900460ff16610686576040517f08c379a000000000000000000000000000000000000000000000000000000000815260040161067d90613b98565b60405180910390fd5b600260c954036106cb576040517f08c379a00000000000000000000000000000000000000000000000000000000081526004016106c290613c00565b60405180910390fd5b600260c9819055506101315f3373ffffffffffffffffffffffffffffffffffffffff1673ffffffffffffffffffffffffffffffffffffffff1681526020019081526020015f205f9054906101000a900460ff161561075e576040517f08c379a000000000000000000000000000000000000000000000000000000000815260040161075590613c68565b60405180910390fd5b5f82116107a0576040517f08c379a000000000000000000000000000000000000000000000000000000000815260040161079790613cd0565b60405180910390fd5b4281116107ac4261219d565b6107b58361219d565b6040516020016107c6929190613e14565b60405160208183030381529060405290610816576040517f08c379a000000000000000000000000000000000000000000000000000000000815260040161080d9190613e85565b60405180910390fd5b505f61082183611a35565b9050808361082f9190613ed2565b3414610870576040517f08c379a000000000000000000000000000000000000000000000000000000000815260040161086790613f75565b60405180910390fd5b5f61012e5490506040518060c001604052803373ffffffffffffffffffffffffffffffffffffffff1681526020018673ffffffffffffffffffffffffffffffffffffffff1681526020018581526020018481526020015f151581526020015f151581525061012d5f8381526020019081526020015f205f820151815f015f6101000a81548173ffffffffffffffffffffffffffffffffffffffff021916908373ffffffffffffffffffffffffffffffffffffffff1602179055506020820151816001015f6101000a81548173ffffffffffffffffffffffffffffffffffffffff021916908373ffffffffffffffffffffffffffffffffffffffff16021790555060408201518160020155606082015181600301556080820151816004015f6101000a81548160ff02191690831515021790555060a08201518160040160016101000a81548160ff02191690831515021790555090505061012e5f8154809291906109d990613f93565b9190505550807f03007cea4db2c6c497b4dcc58da86df4157c12f03ab8286192b235041fdc5b5233878787604051610a149493929190613ffa565b60405180910390a25050600160c981905550505050565b610a336113c6565b15610a73576040517f08c379a0000000000000000000000000000000000000000000000000000000008152600401610a6a90613b30565b60405180910390fd5b6101325f9054906101000a900460ff16610ac2576040517f08c379a0000000000000000000000000000000000000000000000000000000008152600401610ab990613b98565b60405180910390fd5b600260c95403610b07576040517f08c379a0000000000000000000000000000000000000000000000000000000008152600401610afe90613c00565b60405180910390fd5b600260c9819055506101315f3373ffffffffffffffffffffffffffffffffffffffff1673ffffffffffffffffffffffffffffffffffffffff1681526020019081526020015f205f9054906101000a900460ff1615610b9a576040517f08c379a0000000000000000000000000000000000000000000000000000000008152600401610b9190613c68565b60405180910390fd5b5f8111610bdc576040517f08c379a0000000000000000000000000000000000000000000000000000000008152600401610bd390613cd0565b60405180910390fd5b5f610be682611a35565b90508082610bf49190613ed2565b3414610c35576040517f08c379a0000000000000000000000000000000000000000000000000000000008152600401610c2c90613f75565b60405180910390fd5b5f8373ffffffffffffffffffffffffffffffffffffffff1683604051610c5a9061406a565b5f6040518083038185875af1925050503d805f8114610c94576040519150601f19603f3d011682016040523d82523d5f602084013e610c99565b606091505b5050905080610cdd576040517f08c379a0000000000000000000000000000000000000000000000000000000008152600401610cd4906140c8565b60405180910390fd5b7f198539828ea1b1430042d87021d717b33000f4eeefcba705c4849838f0ec31cf338585604051610d10939291906140e6565b60405180910390a15050600160c9819055505050565b610d2e612267565b73ffffffffffffffffffffffffffffffffffffffff16610d4c611628565b73ffffffffffffffffffffffffffffffffffffffff1614610da2576040517f08c379a0000000000000000000000000000000000000000000000000000000008152600401610d9990614165565b60405180910390fd5b806101305f6101000a81548173ffffffffffffffffffffffffffffffffffffffff021916908373ffffffffffffffffffffffffffffffffffffffff1602179055507fa0ca04e9956a42929fa24e6299bb6622c8703ac575c61b33e01fb170100ee6dc81604051610e129190613865565b60405180910390a150565b610e25612267565b73ffffffffffffffffffffffffffffffffffffffff16610e43611628565b73ffffffffffffffffffffffffffffffffffffffff1614610e99576040517f08c379a0000000000000000000000000000000000000000000000000000000008152600401610e9090614165565b60405180910390fd5b806101325f6101000a81548160ff0219169083151502179055507fb332ca16caa1c4a06e0ac387e6f16243ed23af2575eb84c3417d16dbbfa3f34381604051610ee2919061376c565b60405180910390a150565b610ef56113c6565b15610f35576040517f08c379a0000000000000000000000000000000000000000000000000000000008152600401610f2c90613b30565b60405180910390fd5b6101325f9054906101000a900460ff16610f84576040517f08c379a0000000000000000000000000000000000000000000000000000000008152600401610f7b90613b98565b60405180910390fd5b600260c95403610fc9576040517f08c379a0000000000000000000000000000000000000000000000000000000008152600401610fc090613c00565b60405180910390fd5b600260c9819055505f61012d5f8381526020019081526020015f209050806004015f9054906101000a900460ff1615801561101357508060040160019054906101000a900460ff16155b611052576040517f08c379a0000000000000000000000000000000000000000000000000000000008152600401611049906141f3565b60405180910390fd5b805f015f9054906101000a900473ffffffffffffffffffffffffffffffffffffffff1673ffffffffffffffffffffffffffffffffffffffff163373ffffffffffffffffffffffffffffffffffffffff1614806110e057506110b1611628565b73ffffffffffffffffffffffffffffffffffffffff163373ffffffffffffffffffffffffffffffffffffffff16145b61111f576040517f08c379a00000000000000000000000000000000000000000000000000000000081526004016111169061425b565b60405180910390fd5b60018160040160016101000a81548160ff0219169083151502179055505f815f015f9054906101000a900473ffffffffffffffffffffffffffffffffffffffff1673ffffffffffffffffffffffffffffffffffffffff1682600201546040516111879061406a565b5f6040518083038185875af1925050503d805f81146111c1576040519150601f19603f3d011682016040523d82523d5f602084013e6111c6565b606091505b505090508061120a576040517f08c379a0000000000000000000000000000000000000000000000000000000008152600401611201906142c3565b60405180910390fd5b827f956fb32199d8b882b2039a14e1be35ab14f7a80b9089fc223f14b43937173e6060405160405180910390a25050600160c98190555050565b61124d8161226e565b6112668160405180602001604052805f8152505f6122ed565b50565b611271612267565b73ffffffffffffffffffffffffffffffffffffffff1661128f611628565b73ffffffffffffffffffffffffffffffffffffffff16146112e5576040517f08c379a00000000000000000000000000000000000000000000000000000000081526004016112dc90614165565b60405180910390fd5b6112ed6124f6565b565b6112f7612267565b73ffffffffffffffffffffffffffffffffffffffff16611315611628565b73ffffffffffffffffffffffffffffffffffffffff161461136b576040517f08c379a000000000000000000000000000000000000000000000000000000000815260040161136290614165565b60405180910390fd5b8061012f819055507f8c4d35e54a3f2ef1134138fd8ea3daee6a3c89e10d2665996babdf70261e2c76816040516113a2919061383d565b60405180910390a150565b6113b68261226e565b6113c2828260016122ed565b5050565b5f60fb5f9054906101000a900460ff16905090565b6101305f9054906101000a900473ffffffffffffffffffffffffffffffffffffffff1681565b6101325f9054906101000a900460ff1681565b5f5f5f5f61012d5f8681526020019081526020015f209050806004015f9054906101000a900460ff168160040160019054906101000a900460ff168260030154935093509350509193909250565b61012f5481565b611471612267565b73ffffffffffffffffffffffffffffffffffffffff1661148f611628565b73ffffffffffffffffffffffffffffffffffffffff16146114e5576040517f08c379a00000000000000000000000000000000000000000000000000000000081526004016114dc90614165565b60405180910390fd5b5f73ffffffffffffffffffffffffffffffffffffffff1660975f9054906101000a900473ffffffffffffffffffffffffffffffffffffffff1673ffffffffffffffffffffffffffffffffffffffff167f8be0079c531659141344cd1fd0a4f28419497f9722a3daafe3b4186f6b6457e060405160405180910390a35f60975f6101000a81548173ffffffffffffffffffffffffffffffffffffffff021916908373ffffffffffffffffffffffffffffffffffffffff160217905550565b6115aa612267565b73ffffffffffffffffffffffffffffffffffffffff166115c8611628565b73ffffffffffffffffffffffffffffffffffffffff161461161e576040517f08c379a000000000000000000000000000000000000000000000000000000000815260040161161590614165565b60405180910390fd5b611626612596565b565b5f60975f9054906101000a900473ffffffffffffffffffffffffffffffffffffffff16905090565b611658612267565b73ffffffffffffffffffffffffffffffffffffffff16611676611628565b73ffffffffffffffffffffffffffffffffffffffff16146116cc576040517f08c379a00000000000000000000000000000000000000000000000000000000081526004016116c390614165565b60405180910390fd5b806101315f8473ffffffffffffffffffffffffffffffffffffffff1673ffffffffffffffffffffffffffffffffffffffff1681526020019081526020015f205f6101000a81548160ff0219169083151502179055507f6a12b3df6cba4203bd7fd06b816789f87de8c594299aed5717ae070fac781bac82826040516117529291906142e1565b60405180910390a15050565b61012d602052805f5260405f205f91509050805f015f9054906101000a900473ffffffffffffffffffffffffffffffffffffffff1690806001015f9054906101000a900473ffffffffffffffffffffffffffffffffffffffff1690806002015490806003015490806004015f9054906101000a900460ff16908060040160019054906101000a900460ff16905086565b5f6101325f9054906101000a900460ff16905090565b606061180e612267565b73ffffffffffffffffffffffffffffffffffffffff1661182c611628565b73ffffffffffffffffffffffffffffffffffffffff1614611882576040517f08c379a000000000000000000000000000000000000000000000000000000000815260040161187990614165565b60405180910390fd5b5f61012e5467ffffffffffffffff8111156118a05761189f6135df565b5b6040519080825280602002602001820160405280156118d957816020015b6118c661334a565b8152602001906001900390816118be5790505b5090505f5f90505b61012e54811015611a265761012d5f8281526020019081526020015f206040518060c00160405290815f82015f9054906101000a900473ffffffffffffffffffffffffffffffffffffffff1673ffffffffffffffffffffffffffffffffffffffff1673ffffffffffffffffffffffffffffffffffffffff168152602001600182015f9054906101000a900473ffffffffffffffffffffffffffffffffffffffff1673ffffffffffffffffffffffffffffffffffffffff1673ffffffffffffffffffffffffffffffffffffffff1681526020016002820154815260200160038201548152602001600482015f9054906101000a900460ff161515151581526020016004820160019054906101000a900460ff161515151581525050828281518110611a0e57611a0d614308565b5b602002602001018190525080806001019150506118e1565b508091505090565b61012e5481565b5f5f611a3f612638565b90506127108184611a509190614335565b611a5a91906143a3565b61012f54611a689190613ed2565b915050919050565b5f60019054906101000a900460ff1680611a9557505f5f9054906101000a900460ff16155b611ad4576040517f08c379a0000000000000000000000000000000000000000000000000000000008152600401611acb90614443565b60405180910390fd5b5f5f60019054906101000a900460ff161590508015611b215760015f60016101000a81548160ff02191690831515021790555060015f5f6101000a81548160ff0219169083151502179055505b611b29612640565b611b31612724565b611b39612800565b611b416128e4565b8261012f81905550816101305f6101000a81548173ffffffffffffffffffffffffffffffffffffffff021916908373ffffffffffffffffffffffffffffffffffffffff16021790555060016101325f6101000a81548160ff0219169083151502179055508015611bc5575f5f60016101000a81548160ff0219169083151502179055505b505050565b611bd26113c6565b15611c12576040517f08c379a0000000000000000000000000000000000000000000000000000000008152600401611c0990613b30565b60405180910390fd5b6101325f9054906101000a900460ff16611c61576040517f08c379a0000000000000000000000000000000000000000000000000000000008152600401611c5890613b98565b60405180910390fd5b600260c95403611ca6576040517f08c379a0000000000000000000000000000000000000000000000000000000008152600401611c9d90613c00565b60405180910390fd5b600260c9819055505f61012d5f8381526020019081526020015f209050806004015f9054906101000a900460ff16158015611cf057508060040160019054906101000a900460ff16155b611d2f576040517f08c379a0000000000000000000000000000000000000000000000000000000008152600401611d26906141f3565b60405180910390fd5b8060030154421015611d76576040517f08c379a0000000000000000000000000000000000000000000000000000000008152600401611d6d906144ab565b60405180910390fd5b6001816004015f6101000a81548160ff0219169083151502179055505f4790505f826001015f9054906101000a900473ffffffffffffffffffffffffffffffffffffffff1673ffffffffffffffffffffffffffffffffffffffff168360020154604051611de29061406a565b5f6040518083038185875af1925050503d805f8114611e1c576040519150601f19603f3d011682016040523d82523d5f602084013e611e21565b606091505b5050905080611e65576040517f08c379a0000000000000000000000000000000000000000000000000000000008152600401611e5c906140c8565b60405180910390fd5b5f47905083600201548184611e7a91906144c9565b14611eba576040517f08c379a0000000000000000000000000000000000000000000000000000000008152600401611eb190614546565b60405180910390fd5b847f36dc6b28af1028509a71e5c4781cbffb8dfd765a490d86d461c87271c652915d855f015f9054906101000a900473ffffffffffffffffffffffffffffffffffffffff16866001015f9054906101000a900473ffffffffffffffffffffffffffffffffffffffff168760020154604051611f3793929190614564565b60405180910390a2847fedc991debce9f0f3a6891627c3aadc9a7fda022331ce09163f7475df3eb0e7f6855f015f9054906101000a900473ffffffffffffffffffffffffffffffffffffffff16866001015f9054906101000a900473ffffffffffffffffffffffffffffffffffffffff1687600201544287604051611fc0959493929190614599565b60405180910390a250505050600160c98190555050565b611fdf612267565b73ffffffffffffffffffffffffffffffffffffffff16611ffd611628565b73ffffffffffffffffffffffffffffffffffffffff1614612053576040517f08c379a000000000000000000000000000000000000000000000000000000000815260040161204a90614165565b60405180910390fd5b5f73ffffffffffffffffffffffffffffffffffffffff168173ffffffffffffffffffffffffffffffffffffffff16036120c1576040517f08c379a00000000000000000000000000000000000000000000000000000000081526004016120b89061465a565b60405180910390fd5b8073ffffffffffffffffffffffffffffffffffffffff1660975f9054906101000a900473ffffffffffffffffffffffffffffffffffffffff1673ffffffffffffffffffffffffffffffffffffffff167f8be0079c531659141344cd1fd0a4f28419497f9722a3daafe3b4186f6b6457e060405160405180910390a38060975f6101000a81548173ffffffffffffffffffffffffffffffffffffffff021916908373ffffffffffffffffffffffffffffffffffffffff16021790555050565b610131602052805f5260405f205f915054906101000a900460ff1681565b60605f60016121ab846129c8565b0190505f8167ffffffffffffffff8111156121c9576121c86135df565b5b6040519080825280601f01601f1916602001820160405280156121fb5781602001600182028036833780820191505090505b5090505f82602001820190505b60011561225c578080600190039150507f3031323334353637383961626364656600000000000000000000000000000000600a86061a8153600a858161225157612250614376565b5b0494505f8503612208575b819350505050919050565b5f33905090565b612276612267565b73ffffffffffffffffffffffffffffffffffffffff16612294611628565b73ffffffffffffffffffffffffffffffffffffffff16146122ea576040517f08c379a00000000000000000000000000000000000000000000000000000000081526004016122e190614165565b60405180910390fd5b50565b5f6122f6612b19565b905061230184612b6c565b5f8351118061230d5750815b1561231e5761231c8484612c22565b505b5f61234a7f4910fdfa16fed3260ed0e7147f7cc6da11a60208b5b9406d12a635614ffd91435f1b612d02565b9050805f015f9054906101000a900460ff166124ef576001815f015f6101000a81548160ff02191690831515021790555061241285836040516024016123909190613865565b6040516020818303038152906040527f3659cfe6000000000000000000000000000000000000000000000000000000007bffffffffffffffffffffffffffffffffffffffffffffffffffffffff19166020820180517bffffffffffffffffffffffffffffffffffffffffffffffffffffffff8381831617835250505050612c22565b505f815f015f6101000a81548160ff021916908315150217905550612435612b19565b73ffffffffffffffffffffffffffffffffffffffff168273ffffffffffffffffffffffffffffffffffffffff16146124a2576040517f08c379a0000000000000000000000000000000000000000000000000000000008152600401612499906146e8565b60405180910390fd5b6124ab85612b6c565b8473ffffffffffffffffffffffffffffffffffffffff167fbc7cd75a20ee27fd9adebab32041f755214dbc6bffa90cc0225b39da2e5c2d3b60405160405180910390a25b5050505050565b6124fe6113c6565b61253d576040517f08c379a000000000000000000000000000000000000000000000000000000000815260040161253490614750565b60405180910390fd5b5f60fb5f6101000a81548160ff0219169083151502179055507f5db9ee0a495bf2e6ff9c91a7834c1ba4fdd244a5e8aa4e537bd38aeae4b073aa61257f612267565b60405161258c9190613865565b60405180910390a1565b61259e6113c6565b156125de576040517f08c379a00000000000000000000000000000000000000000000000000000000081526004016125d590613b30565b60405180910390fd5b600160fb5f6101000a81548160ff0219169083151502179055507f62e78cea01bee320cd4e420270b5ea74000d11b0c9f74754ebdbfc544b05a258612621612267565b60405161262e9190613865565b60405180910390a1565b5f6064905090565b5f60019054906101000a900460ff168061266557505f5f9054906101000a900460ff16155b6126a4576040517f08c379a000000000000000000000000000000000000000000000000000000000815260040161269b90614443565b60405180910390fd5b5f5f60019054906101000a900460ff1615905080156126f15760015f60016101000a81548160ff02191690831515021790555060015f5f6101000a81548160ff0219169083151502179055505b6126f9612d0b565b612701612ddf565b8015612721575f5f60016101000a81548160ff0219169083151502179055505b50565b5f60019054906101000a900460ff168061274957505f5f9054906101000a900460ff16155b612788576040517f08c379a000000000000000000000000000000000000000000000000000000000815260040161277f90614443565b60405180910390fd5b5f5f60019054906101000a900460ff1615905080156127d55760015f60016101000a81548160ff02191690831515021790555060015f5f6101000a81548160ff0219169083151502179055505b6127dd612f59565b80156127fd575f5f60016101000a81548160ff0219169083151502179055505b50565b5f60019054906101000a900460ff168061282557505f5f9054906101000a900460ff16155b612864576040517f08c379a000000000000000000000000000000000000000000000000000000000815260040161285b90614443565b60405180910390fd5b5f5f60019054906101000a900460ff1615905080156128b15760015f60016101000a81548160ff02191690831515021790555060015f5f6101000a81548160ff0219169083151502179055505b6128b9612d0b565b6128c1613035565b80156128e1575f5f60016101000a81548160ff0219169083151502179055505b50565b5f60019054906101000a900460ff168061290957505f5f9054906101000a900460ff16155b612948576040517f08c379a000000000000000000000000000000000000000000000000000000000815260040161293f90614443565b60405180910390fd5b5f5f60019054906101000a900460ff1615905080156129955760015f60016101000a81548160ff02191690831515021790555060015f5f6101000a81548160ff0219169083151502179055505b61299d613122565b6129a56131f6565b80156129c5575f5f60016101000a81548160ff0219169083151502179055505b50565b5f5f5f90507a184f03e93ff9f4daa797ed6e38ed64bf6a1f0100000000000000008310612a24577a184f03e93ff9f4daa797ed6e38ed64bf6a1f0100000000000000008381612a1a57612a19614376565b5b0492506040810190505b6d04ee2d6d415b85acef81000000008310612a61576d04ee2d6d415b85acef81000000008381612a5757612a56614376565b5b0492506020810190505b662386f26fc100008310612a9057662386f26fc100008381612a8657612a85614376565b5b0492506010810190505b6305f5e1008310612ab9576305f5e1008381612aaf57612aae614376565b5b0492506008810190505b6127108310612ade576127108381612ad457612ad3614376565b5b0492506004810190505b60648310612b015760648381612af757612af6614376565b5b0492506002810190505b600a8310612b10576001810190505b80915050919050565b5f612b457f360894a13ba1a3210667c828492db98dca3e2076cc3735a920a3ca505d382bbc5f1b6132ca565b5f015f9054906101000a900473ffffffffffffffffffffffffffffffffffffffff16905090565b612b75816132d3565b612bb4576040517f08c379a0000000000000000000000000000000000000000000000000000000008152600401612bab906147de565b60405180910390fd5b80612be07f360894a13ba1a3210667c828492db98dca3e2076cc3735a920a3ca505d382bbc5f1b6132ca565b5f015f6101000a81548173ffffffffffffffffffffffffffffffffffffffff021916908373ffffffffffffffffffffffffffffffffffffffff16021790555050565b6060612c2d836132d3565b612c6c576040517f08c379a0000000000000000000000000000000000000000000000000000000008152600401612c639061486c565b60405180910390fd5b5f5f8473ffffffffffffffffffffffffffffffffffffffff1684604051612c9391906148c4565b5f60405180830381855af49150503d805f8114612ccb576040519150601f19603f3d011682016040523d82523d5f602084013e612cd0565b606091505b5091509150612cf882826040518060600160405280602781526020016148db602791396132e4565b9250505092915050565b5f819050919050565b5f60019054906101000a900460ff1680612d3057505f5f9054906101000a900460ff16155b612d6f576040517f08c379a0000000000000000000000000000000000000000000000000000000008152600401612d6690614443565b60405180910390fd5b5f5f60019054906101000a900460ff161590508015612dbc5760015f60016101000a81548160ff02191690831515021790555060015f5f6101000a81548160ff0219169083151502179055505b8015612ddc575f5f60016101000a81548160ff0219169083151502179055505b50565b5f60019054906101000a900460ff1680612e0457505f5f9054906101000a900460ff16155b612e43576040517f08c379a0000000000000000000000000000000000000000000000000000000008152600401612e3a90614443565b60405180910390fd5b5f5f60019054906101000a900460ff161590508015612e905760015f60016101000a81548160ff02191690831515021790555060015f5f6101000a81548160ff0219169083151502179055505b5f612e99612267565b90508060975f6101000a81548173ffffffffffffffffffffffffffffffffffffffff021916908373ffffffffffffffffffffffffffffffffffffffff1602179055508073ffffffffffffffffffffffffffffffffffffffff165f73ffffffffffffffffffffffffffffffffffffffff167f8be0079c531659141344cd1fd0a4f28419497f9722a3daafe3b4186f6b6457e060405160405180910390a3508015612f56575f5f60016101000a81548160ff0219169083151502179055505b50565b5f60019054906101000a900460ff1680612f7e57505f5f9054906101000a900460ff16155b612fbd576040517f08c379a0000000000000000000000000000000000000000000000000000000008152600401612fb490614443565b60405180910390fd5b5f5f60019054906101000a900460ff16159050801561300a5760015f60016101000a81548160ff02191690831515021790555060015f5f6101000a81548160ff0219169083151502179055505b600160c9819055508015613032575f5f60016101000a81548160ff0219169083151502179055505b50565b5f60019054906101000a900460ff168061305a57505f5f9054906101000a900460ff16155b613099576040517f08c379a000000000000000000000000000000000000000000000000000000000815260040161309090614443565b60405180910390fd5b5f5f60019054906101000a900460ff1615905080156130e65760015f60016101000a81548160ff02191690831515021790555060015f5f6101000a81548160ff0219169083151502179055505b5f60fb5f6101000a81548160ff021916908315150217905550801561311f575f5f60016101000a81548160ff0219169083151502179055505b50565b5f60019054906101000a900460ff168061314757505f5f9054906101000a900460ff16155b613186576040517f08c379a000000000000000000000000000000000000000000000000000000000815260040161317d90614443565b60405180910390fd5b5f5f60019054906101000a900460ff1615905080156131d35760015f60016101000a81548160ff02191690831515021790555060015f5f6101000a81548160ff0219169083151502179055505b80156131f3575f5f60016101000a81548160ff0219169083151502179055505b50565b5f60019054906101000a900460ff168061321b57505f5f9054906101000a900460ff16155b61325a576040517f08c379a000000000000000000000000000000000000000000000000000000000815260040161325190614443565b60405180910390fd5b5f5f60019054906101000a900460ff1615905080156132a75760015f60016101000a81548160ff02191690831515021790555060015f5f6101000a81548160ff0219169083151502179055505b80156132c7575f5f60016101000a81548160ff0219169083151502179055505b50565b5f819050919050565b5f5f823b90505f8111915050919050565b606083156132f457829050613343565b5f835111156133065782518084602001fd5b816040517f08c379a000000000000000000000000000000000000000000000000000000000815260040161333a9190613e85565b60405180910390fd5b9392505050565b6040518060c001604052805f73ffffffffffffffffffffffffffffffffffffffff1681526020015f73ffffffffffffffffffffffffffffffffffffffff1681526020015f81526020015f81526020015f151581526020015f151581525090565b5f604051905090565b5f5ffd5b5f5ffd5b5f73ffffffffffffffffffffffffffffffffffffffff82169050919050565b5f6133e4826133bb565b9050919050565b6133f4816133da565b81146133fe575f5ffd5b50565b5f8135905061340f816133eb565b92915050565b5f819050919050565b61342781613415565b8114613431575f5ffd5b50565b5f813590506134428161341e565b92915050565b5f5f5f6060848603121561345f5761345e6133b3565b5b5f61346c86828701613401565b935050602061347d86828701613434565b925050604061348e86828701613434565b9150509250925092565b5f5f604083850312156134ae576134ad6133b3565b5b5f6134bb85828601613401565b92505060206134cc85828601613434565b9150509250929050565b5f6134e0826133bb565b9050919050565b6134f0816134d6565b81146134fa575f5ffd5b50565b5f8135905061350b816134e7565b92915050565b5f60208284031215613526576135256133b3565b5b5f613533848285016134fd565b91505092915050565b5f8115159050919050565b6135508161353c565b811461355a575f5ffd5b50565b5f8135905061356b81613547565b92915050565b5f60208284031215613586576135856133b3565b5b5f6135938482850161355d565b91505092915050565b5f602082840312156135b1576135b06133b3565b5b5f6135be84828501613434565b91505092915050565b5f5ffd5b5f5ffd5b5f601f19601f8301169050919050565b7f4e487b71000000000000000000000000000000000000000000000000000000005f52604160045260245ffd5b613615826135cf565b810181811067ffffffffffffffff82111715613634576136336135df565b5b80604052505050565b5f6136466133aa565b9050613652828261360c565b919050565b5f67ffffffffffffffff821115613671576136706135df565b5b61367a826135cf565b9050602081019050919050565b828183375f83830152505050565b5f6136a76136a284613657565b61363d565b9050828152602081018484840111156136c3576136c26135cb565b5b6136ce848285613687565b509392505050565b5f82601f8301126136ea576136e96135c7565b5b81356136fa848260208601613695565b91505092915050565b5f5f60408385031215613719576137186133b3565b5b5f613726858286016134fd565b925050602083013567ffffffffffffffff811115613747576137466133b7565b5b613753858286016136d6565b9150509250929050565b6137668161353c565b82525050565b5f60208201905061377f5f83018461375d565b92915050565b5f819050919050565b5f6137a86137a361379e846133bb565b613785565b6133bb565b9050919050565b5f6137b98261378e565b9050919050565b5f6137ca826137af565b9050919050565b6137da816137c0565b82525050565b5f6020820190506137f35f8301846137d1565b92915050565b61380281613415565b82525050565b5f60608201905061381b5f83018661375d565b613828602083018561375d565b61383560408301846137f9565b949350505050565b5f6020820190506138505f8301846137f9565b92915050565b61385f816134d6565b82525050565b5f6020820190506138785f830184613856565b92915050565b5f5f60408385031215613894576138936133b3565b5b5f6138a1858286016134fd565b92505060206138b28582860161355d565b9150509250929050565b6138c5816133da565b82525050565b5f60c0820190506138de5f8301896138bc565b6138eb60208301886138bc565b6138f860408301876137f9565b61390560608301866137f9565b613912608083018561375d565b61391f60a083018461375d565b979650505050505050565b5f81519050919050565b5f82825260208201905092915050565b5f819050602082019050919050565b61395c816133da565b82525050565b61396b81613415565b82525050565b61397a8161353c565b82525050565b60c082015f8201516139945f850182613953565b5060208201516139a76020850182613953565b5060408201516139ba6040850182613962565b5060608201516139cd6060850182613962565b5060808201516139e06080850182613971565b5060a08201516139f360a0850182613971565b50505050565b5f613a048383613980565b60c08301905092915050565b5f602082019050919050565b5f613a268261392a565b613a308185613934565b9350613a3b83613944565b805f5b83811015613a6b578151613a5288826139f9565b9750613a5d83613a10565b925050600181019050613a3e565b5085935050505092915050565b5f6020820190508181035f830152613a908184613a1c565b905092915050565b5f5f60408385031215613aae57613aad6133b3565b5b5f613abb85828601613434565b9250506020613acc858286016134fd565b9150509250929050565b5f82825260208201905092915050565b7f5061757361626c653a20706175736564000000000000000000000000000000005f82015250565b5f613b1a601083613ad6565b9150613b2582613ae6565b602082019050919050565b5f6020820190508181035f830152613b4781613b0e565b9050919050565b7f436f6e74726163742069732064697361626c65640000000000000000000000005f82015250565b5f613b82601483613ad6565b9150613b8d82613b4e565b602082019050919050565b5f6020820190508181035f830152613baf81613b76565b9050919050565b7f5265656e7472616e637947756172643a207265656e7472616e742063616c6c005f82015250565b5f613bea601f83613ad6565b9150613bf582613bb6565b602082019050919050565b5f6020820190508181035f830152613c1781613bde565b9050919050565b7f53656e64657220697320626c61636b6c697374656400000000000000000000005f82015250565b5f613c52601583613ad6565b9150613c5d82613c1e565b602082019050919050565b5f6020820190508181035f830152613c7f81613c46565b9050919050565b7f416d6f756e74206d7573742062652067726561746572207468616e20300000005f82015250565b5f613cba601d83613ad6565b9150613cc582613c86565b602082019050919050565b5f6020820190508181035f830152613ce781613cae565b9050919050565b5f81905092915050565b7f5363686564756c65642074696d65206d75737420626520696e207468652066755f8201527f747572652e2043757272656e742074696d653a20000000000000000000000000602082015250565b5f613d52603483613cee565b9150613d5d82613cf8565b603482019050919050565b5f81519050919050565b5f5b83811015613d8f578082015181840152602081019050613d74565b5f8484015250505050565b5f613da482613d68565b613dae8185613cee565b9350613dbe818560208601613d72565b80840191505092915050565b7f2c205363686564756c65642074696d653a2000000000000000000000000000005f82015250565b5f613dfe601283613cee565b9150613e0982613dca565b601282019050919050565b5f613e1e82613d46565b9150613e2a8285613d9a565b9150613e3582613df2565b9150613e418284613d9a565b91508190509392505050565b5f613e5782613d68565b613e618185613ad6565b9350613e71818560208601613d72565b613e7a816135cf565b840191505092915050565b5f6020820190508181035f830152613e9d8184613e4d565b905092915050565b7f4e487b71000000000000000000000000000000000000000000000000000000005f52601160045260245ffd5b5f613edc82613415565b9150613ee783613415565b9250828201905080821115613eff57613efe613ea5565b5b92915050565b7f53656e742076616c7565206d757374206d6174636820746865207472616e73615f8201527f6374696f6e20616d6f756e7420706c7573206665650000000000000000000000602082015250565b5f613f5f603583613ad6565b9150613f6a82613f05565b604082019050919050565b5f6020820190508181035f830152613f8c81613f53565b9050919050565b5f613f9d82613415565b91507fffffffffffffffffffffffffffffffffffffffffffffffffffffffffffffffff8203613fcf57613fce613ea5565b5b600182019050919050565b5f613fe4826137af565b9050919050565b613ff481613fda565b82525050565b5f60808201905061400d5f830187613856565b61401a6020830186613feb565b61402760408301856137f9565b61403460608301846137f9565b95945050505050565b5f81905092915050565b50565b5f6140555f8361403d565b915061406082614047565b5f82019050919050565b5f6140748261404a565b9150819050919050565b7f5472616e73666572206661696c656400000000000000000000000000000000005f82015250565b5f6140b2600f83613ad6565b91506140bd8261407e565b602082019050919050565b5f6020820190508181035f8301526140df816140a6565b9050919050565b5f6060820190506140f95f830186613856565b6141066020830185613feb565b61411360408301846137f9565b949350505050565b7f4f776e61626c653a2063616c6c6572206973206e6f7420746865206f776e65725f82015250565b5f61414f602083613ad6565b915061415a8261411b565b602082019050919050565b5f6020820190508181035f83015261417c81614143565b9050919050565b7f5472616e73616374696f6e20616c7265616479206578656375746564206f72205f8201527f63616e63656c6c65640000000000000000000000000000000000000000000000602082015250565b5f6141dd602983613ad6565b91506141e882614183565b604082019050919050565b5f6020820190508181035f83015261420a816141d1565b9050919050565b7f4e6f7420617574686f72697a656420746f2063616e63656c00000000000000005f82015250565b5f614245601883613ad6565b915061425082614211565b602082019050919050565b5f6020820190508181035f83015261427281614239565b9050919050565b7f526566756e64206661696c6564000000000000000000000000000000000000005f82015250565b5f6142ad600d83613ad6565b91506142b882614279565b602082019050919050565b5f6020820190508181035f8301526142da816142a1565b9050919050565b5f6040820190506142f45f830185613856565b614301602083018461375d565b9392505050565b7f4e487b71000000000000000000000000000000000000000000000000000000005f52603260045260245ffd5b5f61433f82613415565b915061434a83613415565b925082820261435881613415565b9150828204841483151761436f5761436e613ea5565b5b5092915050565b7f4e487b71000000000000000000000000000000000000000000000000000000005f52601260045260245ffd5b5f6143ad82613415565b91506143b883613415565b9250826143c8576143c7614376565b5b828204905092915050565b7f496e697469616c697a61626c653a20636f6e747261637420697320616c7265615f8201527f647920696e697469616c697a6564000000000000000000000000000000000000602082015250565b5f61442d602e83613ad6565b9150614438826143d3565b604082019050919050565b5f6020820190508181035f83015261445a81614421565b9050919050565b7f5472616e73616374696f6e206e6f7420796574206475650000000000000000005f82015250565b5f614495601783613ad6565b91506144a082614461565b602082019050919050565b5f6020820190508181035f8301526144c281614489565b9050919050565b5f6144d382613415565b91506144de83613415565b92508282039050818111156144f6576144f5613ea5565b5b92915050565b7f5472616e7366657220616d6f756e74206d69736d6174636800000000000000005f82015250565b5f614530601883613ad6565b915061453b826144fc565b602082019050919050565b5f6020820190508181035f83015261455d81614524565b9050919050565b5f6060820190506145775f830186613feb565b6145846020830185613feb565b61459160408301846137f9565b949350505050565b5f60a0820190506145ac5f830188613feb565b6145b96020830187613feb565b6145c660408301866137f9565b6145d360608301856137f9565b6145e0608083018461375d565b9695505050505050565b7f4f776e61626c653a206e6577206f776e657220697320746865207a65726f20615f8201527f6464726573730000000000000000000000000000000000000000000000000000602082015250565b5f614644602683613ad6565b915061464f826145ea565b604082019050919050565b5f6020820190508181035f83015261467181614638565b9050919050565b7f45524331393637557067726164653a207570677261646520627265616b7320665f8201527f7572746865722075706772616465730000000000000000000000000000000000602082015250565b5f6146d2602f83613ad6565b91506146dd82614678565b604082019050919050565b5f6020820190508181035f8301526146ff816146c6565b9050919050565b7f5061757361626c653a206e6f74207061757365640000000000000000000000005f82015250565b5f61473a601483613ad6565b915061474582614706565b602082019050919050565b5f6020820190508181035f8301526147678161472e565b9050919050565b7f455243313936373a206e657720696d706c656d656e746174696f6e206973206e5f8201527f6f74206120636f6e747261637400000000000000000000000000000000000000602082015250565b5f6147c8602d83613ad6565b91506147d38261476e565b604082019050919050565b5f6020820190508181035f8301526147f5816147bc565b9050919050565b7f416464726573733a2064656c65676174652063616c6c20746f206e6f6e2d636f5f8201527f6e74726163740000000000000000000000000000000000000000000000000000602082015250565b5f614856602683613ad6565b9150614861826147fc565b604082019050919050565b5f6020820190508181035f8301526148838161484a565b9050919050565b5f81519050919050565b5f61489e8261488a565b6148a8818561403d565b93506148b8818560208601613d72565b80840191505092915050565b5f6148cf8284614894565b91508190509291505056fe416464726573733a206c6f772d6c6576656c2064656c65676174652063616c6c206661696c6564a264697066735822122067b69af98fffdb3fcd142794ae10fb770bc50cbd1af30c1952eefa564c17c80e64736f6c634300081c0033",
    "linkReferences": {},
    "deployedLinkReferences": {}
}